{
  "_format": "hh-sol-artifact-1",
  "contractName": "EAS",
  "sourceName": "contracts/EAS.sol",
  "abi": [
    {
      "inputs": [
        {
          "internalType": "contract ISchemaRegistry",
          "name": "registry",
          "type": "address"
        }
      ],
      "stateMutability": "nonpayable",
      "type": "constructor"
    },
    {
      "inputs": [],
      "name": "AccessDenied",
      "type": "error"
    },
    {
      "inputs": [],
      "name": "AlreadyRevoked",
      "type": "error"
    },
    {
      "inputs": [],
      "name": "AlreadyRevokedOffchain",
      "type": "error"
    },
    {
      "inputs": [],
      "name": "AlreadyTimestamped",
      "type": "error"
    },
    {
      "inputs": [],
      "name": "InsufficientValue",
      "type": "error"
    },
    {
      "inputs": [],
      "name": "InvalidAttestation",
      "type": "error"
    },
    {
      "inputs": [],
      "name": "InvalidAttestations",
      "type": "error"
    },
    {
      "inputs": [],
      "name": "InvalidExpirationTime",
      "type": "error"
    },
    {
      "inputs": [],
      "name": "InvalidLength",
      "type": "error"
    },
    {
      "inputs": [],
      "name": "InvalidOffset",
      "type": "error"
    },
    {
      "inputs": [],
      "name": "InvalidRegistry",
      "type": "error"
    },
    {
      "inputs": [],
      "name": "InvalidRevocation",
      "type": "error"
    },
    {
      "inputs": [],
      "name": "InvalidRevocations",
      "type": "error"
    },
    {
      "inputs": [],
      "name": "InvalidSchema",
      "type": "error"
    },
    {
      "inputs": [],
      "name": "InvalidShortString",
      "type": "error"
    },
    {
      "inputs": [],
      "name": "InvalidSignature",
      "type": "error"
    },
    {
      "inputs": [],
      "name": "InvalidVerifier",
      "type": "error"
    },
    {
      "inputs": [],
      "name": "Irrevocable",
      "type": "error"
    },
    {
      "inputs": [],
      "name": "NotFound",
      "type": "error"
    },
    {
      "inputs": [],
      "name": "NotPayable",
      "type": "error"
    },
    {
      "inputs": [
        {
          "internalType": "string",
          "name": "str",
          "type": "string"
        }
      ],
      "name": "StringTooLong",
      "type": "error"
    },
    {
      "inputs": [],
      "name": "WrongSchema",
      "type": "error"
    },
    {
      "anonymous": false,
      "inputs": [
        {
          "indexed": true,
          "internalType": "address",
          "name": "recipient",
          "type": "address"
        },
        {
          "indexed": true,
          "internalType": "address",
          "name": "attester",
          "type": "address"
        },
        {
          "indexed": false,
          "internalType": "bytes32",
          "name": "uid",
          "type": "bytes32"
        },
        {
          "indexed": true,
          "internalType": "bytes32",
          "name": "schema",
          "type": "bytes32"
        }
      ],
      "name": "Attested",
      "type": "event"
    },
    {
      "anonymous": false,
      "inputs": [],
      "name": "EIP712DomainChanged",
      "type": "event"
    },
    {
      "anonymous": false,
      "inputs": [
        {
          "indexed": true,
          "internalType": "address",
          "name": "recipient",
          "type": "address"
        },
        {
          "indexed": true,
          "internalType": "address",
          "name": "attester",
          "type": "address"
        },
        {
          "indexed": false,
          "internalType": "bytes32",
          "name": "uid",
          "type": "bytes32"
        },
        {
          "indexed": true,
          "internalType": "bytes32",
          "name": "schema",
          "type": "bytes32"
        }
      ],
      "name": "Revoked",
      "type": "event"
    },
    {
      "anonymous": false,
      "inputs": [
        {
          "indexed": true,
          "internalType": "address",
          "name": "revoker",
          "type": "address"
        },
        {
          "indexed": true,
          "internalType": "bytes32",
          "name": "data",
          "type": "bytes32"
        },
        {
          "indexed": true,
          "internalType": "uint64",
          "name": "timestamp",
          "type": "uint64"
        }
      ],
      "name": "RevokedOffchain",
      "type": "event"
    },
    {
      "anonymous": false,
      "inputs": [
        {
          "indexed": true,
          "internalType": "bytes32",
          "name": "data",
          "type": "bytes32"
        },
        {
          "indexed": true,
          "internalType": "uint64",
          "name": "timestamp",
          "type": "uint64"
        }
      ],
      "name": "Timestamped",
      "type": "event"
    },
    {
      "inputs": [],
      "name": "VERSION",
      "outputs": [
        {
          "internalType": "string",
          "name": "",
          "type": "string"
        }
      ],
      "stateMutability": "view",
      "type": "function"
    },
    {
      "inputs": [
        {
          "components": [
            {
              "internalType": "bytes32",
              "name": "schema",
              "type": "bytes32"
            },
            {
              "components": [
                {
                  "internalType": "address",
                  "name": "recipient",
                  "type": "address"
                },
                {
                  "internalType": "uint64",
                  "name": "expirationTime",
                  "type": "uint64"
                },
                {
                  "internalType": "bool",
                  "name": "revocable",
                  "type": "bool"
                },
                {
                  "internalType": "bytes32",
                  "name": "refUID",
                  "type": "bytes32"
                },
                {
                  "internalType": "bytes",
                  "name": "data",
                  "type": "bytes"
                },
                {
                  "internalType": "uint256",
                  "name": "value",
                  "type": "uint256"
                }
              ],
              "internalType": "struct AttestationRequestData",
              "name": "data",
              "type": "tuple"
            }
          ],
          "internalType": "struct AttestationRequest",
          "name": "request",
          "type": "tuple"
        }
      ],
      "name": "attest",
      "outputs": [
        {
          "internalType": "bytes32",
          "name": "",
          "type": "bytes32"
        }
      ],
      "stateMutability": "payable",
      "type": "function"
    },
    {
      "inputs": [
        {
          "components": [
            {
              "internalType": "bytes32",
              "name": "schema",
              "type": "bytes32"
            },
            {
              "components": [
                {
                  "internalType": "address",
                  "name": "recipient",
                  "type": "address"
                },
                {
                  "internalType": "uint64",
                  "name": "expirationTime",
                  "type": "uint64"
                },
                {
                  "internalType": "bool",
                  "name": "revocable",
                  "type": "bool"
                },
                {
                  "internalType": "bytes32",
                  "name": "refUID",
                  "type": "bytes32"
                },
                {
                  "internalType": "bytes",
                  "name": "data",
                  "type": "bytes"
                },
                {
                  "internalType": "uint256",
                  "name": "value",
                  "type": "uint256"
                }
              ],
              "internalType": "struct AttestationRequestData",
              "name": "data",
              "type": "tuple"
            },
            {
              "components": [
                {
                  "internalType": "uint8",
                  "name": "v",
                  "type": "uint8"
                },
                {
                  "internalType": "bytes32",
                  "name": "r",
                  "type": "bytes32"
                },
                {
                  "internalType": "bytes32",
                  "name": "s",
                  "type": "bytes32"
                }
              ],
              "internalType": "struct EIP712Signature",
              "name": "signature",
              "type": "tuple"
            },
            {
              "internalType": "address",
              "name": "attester",
              "type": "address"
            }
          ],
          "internalType": "struct DelegatedAttestationRequest",
          "name": "delegatedRequest",
          "type": "tuple"
        }
      ],
      "name": "attestByDelegation",
      "outputs": [
        {
          "internalType": "bytes32",
          "name": "",
          "type": "bytes32"
        }
      ],
      "stateMutability": "payable",
      "type": "function"
    },
    {
      "inputs": [],
      "name": "eip712Domain",
      "outputs": [
        {
          "internalType": "bytes1",
          "name": "fields",
          "type": "bytes1"
        },
        {
          "internalType": "string",
          "name": "name",
          "type": "string"
        },
        {
          "internalType": "string",
          "name": "version",
          "type": "string"
        },
        {
          "internalType": "uint256",
          "name": "chainId",
          "type": "uint256"
        },
        {
          "internalType": "address",
          "name": "verifyingContract",
          "type": "address"
        },
        {
          "internalType": "bytes32",
          "name": "salt",
          "type": "bytes32"
        },
        {
          "internalType": "uint256[]",
          "name": "extensions",
          "type": "uint256[]"
        }
      ],
      "stateMutability": "view",
      "type": "function"
    },
    {
      "inputs": [],
      "name": "getAttestTypeHash",
      "outputs": [
        {
          "internalType": "bytes32",
          "name": "",
          "type": "bytes32"
        }
      ],
      "stateMutability": "pure",
      "type": "function"
    },
    {
      "inputs": [
        {
          "internalType": "bytes32",
          "name": "uid",
          "type": "bytes32"
        }
      ],
      "name": "getAttestation",
      "outputs": [
        {
          "components": [
            {
              "internalType": "bytes32",
              "name": "uid",
              "type": "bytes32"
            },
            {
              "internalType": "bytes32",
              "name": "schema",
              "type": "bytes32"
            },
            {
              "internalType": "uint64",
              "name": "time",
              "type": "uint64"
            },
            {
              "internalType": "uint64",
              "name": "expirationTime",
              "type": "uint64"
            },
            {
              "internalType": "uint64",
              "name": "revocationTime",
              "type": "uint64"
            },
            {
              "internalType": "bytes32",
              "name": "refUID",
              "type": "bytes32"
            },
            {
              "internalType": "address",
              "name": "recipient",
              "type": "address"
            },
            {
              "internalType": "address",
              "name": "attester",
              "type": "address"
            },
            {
              "internalType": "bool",
              "name": "revocable",
              "type": "bool"
            },
            {
              "internalType": "bytes",
              "name": "data",
              "type": "bytes"
            }
          ],
          "internalType": "struct Attestation",
          "name": "",
          "type": "tuple"
        }
      ],
      "stateMutability": "view",
      "type": "function"
    },
    {
      "inputs": [],
      "name": "getDomainSeparator",
      "outputs": [
        {
          "internalType": "bytes32",
          "name": "",
          "type": "bytes32"
        }
      ],
      "stateMutability": "view",
      "type": "function"
    },
    {
      "inputs": [],
      "name": "getName",
      "outputs": [
        {
          "internalType": "string",
          "name": "",
          "type": "string"
        }
      ],
      "stateMutability": "view",
      "type": "function"
    },
    {
      "inputs": [
        {
          "internalType": "address",
          "name": "account",
          "type": "address"
        }
      ],
      "name": "getNonce",
      "outputs": [
        {
          "internalType": "uint256",
          "name": "",
          "type": "uint256"
        }
      ],
      "stateMutability": "view",
      "type": "function"
    },
    {
      "inputs": [
        {
          "internalType": "address",
          "name": "revoker",
          "type": "address"
        },
        {
          "internalType": "bytes32",
          "name": "data",
          "type": "bytes32"
        }
      ],
      "name": "getRevokeOffchain",
      "outputs": [
        {
          "internalType": "uint64",
          "name": "",
          "type": "uint64"
        }
      ],
      "stateMutability": "view",
      "type": "function"
    },
    {
      "inputs": [],
      "name": "getRevokeTypeHash",
      "outputs": [
        {
          "internalType": "bytes32",
          "name": "",
          "type": "bytes32"
        }
      ],
      "stateMutability": "pure",
      "type": "function"
    },
    {
      "inputs": [],
      "name": "getSchemaRegistry",
      "outputs": [
        {
          "internalType": "contract ISchemaRegistry",
          "name": "",
          "type": "address"
        }
      ],
      "stateMutability": "view",
      "type": "function"
    },
    {
      "inputs": [
        {
          "internalType": "bytes32",
          "name": "data",
          "type": "bytes32"
        }
      ],
      "name": "getTimestamp",
      "outputs": [
        {
          "internalType": "uint64",
          "name": "",
          "type": "uint64"
        }
      ],
      "stateMutability": "view",
      "type": "function"
    },
    {
      "inputs": [
        {
          "internalType": "bytes32",
          "name": "uid",
          "type": "bytes32"
        }
      ],
      "name": "isAttestationValid",
      "outputs": [
        {
          "internalType": "bool",
          "name": "",
          "type": "bool"
        }
      ],
      "stateMutability": "view",
      "type": "function"
    },
    {
      "inputs": [
        {
          "components": [
            {
              "internalType": "bytes32",
              "name": "schema",
              "type": "bytes32"
            },
            {
              "components": [
                {
                  "internalType": "address",
                  "name": "recipient",
                  "type": "address"
                },
                {
                  "internalType": "uint64",
                  "name": "expirationTime",
                  "type": "uint64"
                },
                {
                  "internalType": "bool",
                  "name": "revocable",
                  "type": "bool"
                },
                {
                  "internalType": "bytes32",
                  "name": "refUID",
                  "type": "bytes32"
                },
                {
                  "internalType": "bytes",
                  "name": "data",
                  "type": "bytes"
                },
                {
                  "internalType": "uint256",
                  "name": "value",
                  "type": "uint256"
                }
              ],
              "internalType": "struct AttestationRequestData[]",
              "name": "data",
              "type": "tuple[]"
            }
          ],
          "internalType": "struct MultiAttestationRequest[]",
          "name": "multiRequests",
          "type": "tuple[]"
        }
      ],
      "name": "multiAttest",
      "outputs": [
        {
          "internalType": "bytes32[]",
          "name": "",
          "type": "bytes32[]"
        }
      ],
      "stateMutability": "payable",
      "type": "function"
    },
    {
      "inputs": [
        {
          "components": [
            {
              "internalType": "bytes32",
              "name": "schema",
              "type": "bytes32"
            },
            {
              "components": [
                {
                  "internalType": "address",
                  "name": "recipient",
                  "type": "address"
                },
                {
                  "internalType": "uint64",
                  "name": "expirationTime",
                  "type": "uint64"
                },
                {
                  "internalType": "bool",
                  "name": "revocable",
                  "type": "bool"
                },
                {
                  "internalType": "bytes32",
                  "name": "refUID",
                  "type": "bytes32"
                },
                {
                  "internalType": "bytes",
                  "name": "data",
                  "type": "bytes"
                },
                {
                  "internalType": "uint256",
                  "name": "value",
                  "type": "uint256"
                }
              ],
              "internalType": "struct AttestationRequestData[]",
              "name": "data",
              "type": "tuple[]"
            },
            {
              "components": [
                {
                  "internalType": "uint8",
                  "name": "v",
                  "type": "uint8"
                },
                {
                  "internalType": "bytes32",
                  "name": "r",
                  "type": "bytes32"
                },
                {
                  "internalType": "bytes32",
                  "name": "s",
                  "type": "bytes32"
                }
              ],
              "internalType": "struct EIP712Signature[]",
              "name": "signatures",
              "type": "tuple[]"
            },
            {
              "internalType": "address",
              "name": "attester",
              "type": "address"
            }
          ],
          "internalType": "struct MultiDelegatedAttestationRequest[]",
          "name": "multiDelegatedRequests",
          "type": "tuple[]"
        }
      ],
      "name": "multiAttestByDelegation",
      "outputs": [
        {
          "internalType": "bytes32[]",
          "name": "",
          "type": "bytes32[]"
        }
      ],
      "stateMutability": "payable",
      "type": "function"
    },
    {
      "inputs": [
        {
          "components": [
            {
              "internalType": "bytes32",
              "name": "schema",
              "type": "bytes32"
            },
            {
              "components": [
                {
                  "internalType": "bytes32",
                  "name": "uid",
                  "type": "bytes32"
                },
                {
                  "internalType": "uint256",
                  "name": "value",
                  "type": "uint256"
                }
              ],
              "internalType": "struct RevocationRequestData[]",
              "name": "data",
              "type": "tuple[]"
            }
          ],
          "internalType": "struct MultiRevocationRequest[]",
          "name": "multiRequests",
          "type": "tuple[]"
        }
      ],
      "name": "multiRevoke",
      "outputs": [],
      "stateMutability": "payable",
      "type": "function"
    },
    {
      "inputs": [
        {
          "components": [
            {
              "internalType": "bytes32",
              "name": "schema",
              "type": "bytes32"
            },
            {
              "components": [
                {
                  "internalType": "bytes32",
                  "name": "uid",
                  "type": "bytes32"
                },
                {
                  "internalType": "uint256",
                  "name": "value",
                  "type": "uint256"
                }
              ],
              "internalType": "struct RevocationRequestData[]",
              "name": "data",
              "type": "tuple[]"
            },
            {
              "components": [
                {
                  "internalType": "uint8",
                  "name": "v",
                  "type": "uint8"
                },
                {
                  "internalType": "bytes32",
                  "name": "r",
                  "type": "bytes32"
                },
                {
                  "internalType": "bytes32",
                  "name": "s",
                  "type": "bytes32"
                }
              ],
              "internalType": "struct EIP712Signature[]",
              "name": "signatures",
              "type": "tuple[]"
            },
            {
              "internalType": "address",
              "name": "revoker",
              "type": "address"
            }
          ],
          "internalType": "struct MultiDelegatedRevocationRequest[]",
          "name": "multiDelegatedRequests",
          "type": "tuple[]"
        }
      ],
      "name": "multiRevokeByDelegation",
      "outputs": [],
      "stateMutability": "payable",
      "type": "function"
    },
    {
      "inputs": [
        {
          "internalType": "bytes32[]",
          "name": "data",
          "type": "bytes32[]"
        }
      ],
      "name": "multiRevokeOffchain",
      "outputs": [
        {
          "internalType": "uint64",
          "name": "",
          "type": "uint64"
        }
      ],
      "stateMutability": "nonpayable",
      "type": "function"
    },
    {
      "inputs": [
        {
          "internalType": "bytes32[]",
          "name": "data",
          "type": "bytes32[]"
        }
      ],
      "name": "multiTimestamp",
      "outputs": [
        {
          "internalType": "uint64",
          "name": "",
          "type": "uint64"
        }
      ],
      "stateMutability": "nonpayable",
      "type": "function"
    },
    {
      "inputs": [
        {
          "components": [
            {
              "internalType": "bytes32",
              "name": "schema",
              "type": "bytes32"
            },
            {
              "components": [
                {
                  "internalType": "bytes32",
                  "name": "uid",
                  "type": "bytes32"
                },
                {
                  "internalType": "uint256",
                  "name": "value",
                  "type": "uint256"
                }
              ],
              "internalType": "struct RevocationRequestData",
              "name": "data",
              "type": "tuple"
            }
          ],
          "internalType": "struct RevocationRequest",
          "name": "request",
          "type": "tuple"
        }
      ],
      "name": "revoke",
      "outputs": [],
      "stateMutability": "payable",
      "type": "function"
    },
    {
      "inputs": [
        {
          "components": [
            {
              "internalType": "bytes32",
              "name": "schema",
              "type": "bytes32"
            },
            {
              "components": [
                {
                  "internalType": "bytes32",
                  "name": "uid",
                  "type": "bytes32"
                },
                {
                  "internalType": "uint256",
                  "name": "value",
                  "type": "uint256"
                }
              ],
              "internalType": "struct RevocationRequestData",
              "name": "data",
              "type": "tuple"
            },
            {
              "components": [
                {
                  "internalType": "uint8",
                  "name": "v",
                  "type": "uint8"
                },
                {
                  "internalType": "bytes32",
                  "name": "r",
                  "type": "bytes32"
                },
                {
                  "internalType": "bytes32",
                  "name": "s",
                  "type": "bytes32"
                }
              ],
              "internalType": "struct EIP712Signature",
              "name": "signature",
              "type": "tuple"
            },
            {
              "internalType": "address",
              "name": "revoker",
              "type": "address"
            }
          ],
          "internalType": "struct DelegatedRevocationRequest",
          "name": "delegatedRequest",
          "type": "tuple"
        }
      ],
      "name": "revokeByDelegation",
      "outputs": [],
      "stateMutability": "payable",
      "type": "function"
    },
    {
      "inputs": [
        {
          "internalType": "bytes32",
          "name": "data",
          "type": "bytes32"
        }
      ],
      "name": "revokeOffchain",
      "outputs": [
        {
          "internalType": "uint64",
          "name": "",
          "type": "uint64"
        }
      ],
      "stateMutability": "nonpayable",
      "type": "function"
    },
    {
      "inputs": [
        {
          "internalType": "bytes32",
          "name": "data",
          "type": "bytes32"
        }
      ],
      "name": "timestamp",
      "outputs": [
        {
          "internalType": "uint64",
          "name": "",
          "type": "uint64"
        }
      ],
      "stateMutability": "nonpayable",
      "type": "function"
    },
    {
      "inputs": [],
      "name": "version",
      "outputs": [
        {
          "internalType": "string",
          "name": "",
          "type": "string"
        }
      ],
      "stateMutability": "view",
      "type": "function"
    }
  ],
  "bytecode": "0x6101e06040523480156200001257600080fd5b5060405162004a8938038062004a8983398101604081905262000035916200020d565b604080518082018252600381526245415360e81b602080830191909152825180840190935260058352640312e302e360dc1b908301526001608052600060a081905260c0819052909190829082906200009090839062000188565b61018052620000a181600162000188565b6101a052815160208084019190912061014052815190820120610160524661010052620001326101405161016051604080517f8b73c3c69bb8fe3d512ecc4cf759cc79239f7b179b0ffacaa9a75d522b39400f60208201529081019290925260608201524660808201523060a082015260009060c00160405160208183030381529060405280519060200120905090565b60e0525050306101205260026200014a8382620002e4565b5050506001600160a01b03811662000175576040516311a1e69760e01b815260040160405180910390fd5b6001600160a01b03166101c05262000425565b6000602083511015620001a857620001a083620001c1565b9050620001bb565b81620001b58482620002e4565b5060ff90505b92915050565b600080829050601f81511115620001f8578260405163305a27a960e01b8152600401620001ef9190620003b0565b60405180910390fd5b8051620002058262000400565b179392505050565b6000602082840312156200022057600080fd5b81516001600160a01b03811681146200023857600080fd5b9392505050565b634e487b7160e01b600052604160045260246000fd5b600181811c908216806200026a57607f821691505b6020821081036200028b57634e487b7160e01b600052602260045260246000fd5b50919050565b601f821115620002df57600081815260208120601f850160051c81016020861015620002ba5750805b601f850160051c820191505b81811015620002db57828155600101620002c6565b5050505b505050565b81516001600160401b038111156200030057620003006200023f565b620003188162000311845462000255565b8462000291565b602080601f831160018114620003505760008415620003375750858301515b600019600386901b1c1916600185901b178555620002db565b600085815260208120601f198616915b82811015620003815788860151825594840194600190910190840162000360565b5085821015620003a05787850151600019600388901b60f8161c191681555b5050505050600190811b01905550565b600060208083528351808285015260005b81811015620003df57858101830151858201604001528201620003c1565b506000604082860101526040601f19601f8301168501019250505092915050565b805160208083015191908110156200028b5760001960209190910360031b1b16919050565b60805160a05160c05160e05161010051610120516101405161016051610180516101a0516101c0516145cf620004ba60003960008181610518015281816114300152611bd301526000610c1d01526000610bf301526000612717015260006126ef0152600061264a015260006126740152600061269e0152600061094a01526000610921015260006108f801526145cf6000f3fe6080604052600436106101965760003560e01c8063b469318d116100e1578063e45d03f91161008a578063ed24911d11610064578063ed24911d146104dc578063f10b5cc8146104f1578063f17325e714610542578063ffa1ad741461055557600080fd5b8063e45d03f914610496578063e57a6b1b146104a9578063e71ff365146104bc57600080fd5b8063d45c4435116100bb578063d45c44351461040d578063e13458fc14610444578063e30bb5631461045757600080fd5b8063b469318d14610360578063b83010d3146103ba578063cf190f34146103ed57600080fd5b80634cb7e9e511610143578063831e05a11161011d578063831e05a1146102f857806384b0196e1461030b578063a3112a641461033357600080fd5b80634cb7e9e5146102b05780634d003070146102c357806354fd4d50146102e357600080fd5b80632d0335ab116101745780632d0335ab1461023857806344adc90e1461027b578063469262671461029b57600080fd5b806312b11a171461019b57806313893f61146101dd57806317d7de7c14610216575b600080fd5b3480156101a757600080fd5b507fdbfdf8dc2b135c26253e00d5b6cbe6f20457e003fd526d97cea183883570de615b6040519081526020015b60405180910390f35b3480156101e957600080fd5b506101fd6101f83660046134e9565b61056a565b60405167ffffffffffffffff90911681526020016101d4565b34801561022257600080fd5b5061022b6105af565b6040516101d49190613599565b34801561024457600080fd5b506101ca6102533660046135e5565b73ffffffffffffffffffffffffffffffffffffffff1660009081526003602052604090205490565b61028e6102893660046134e9565b610641565b6040516101d49190613602565b6102ae6102a9366004613646565b610778565b005b6102ae6102be3660046134e9565b6107fc565b3480156102cf57600080fd5b506101fd6102de36600461365e565b6108e4565b3480156102ef57600080fd5b5061022b6108f1565b61028e6103063660046134e9565b610994565b34801561031757600080fd5b50610320610be5565b6040516101d497969594939291906136b2565b34801561033f57600080fd5b5061035361034e36600461365e565b610c89565b6040516101d49190613822565b34801561036c57600080fd5b506101fd61037b366004613835565b73ffffffffffffffffffffffffffffffffffffffff919091166000908152600660209081526040808320938352929052205467ffffffffffffffff1690565b3480156103c657600080fd5b507fa98d02348410c9c76735e0d0bb1396f4015ac2bb9615f9c2611d19d7a8a996506101ca565b3480156103f957600080fd5b506101fd61040836600461365e565b610e4b565b34801561041957600080fd5b506101fd61042836600461365e565b60009081526005602052604090205467ffffffffffffffff1690565b6101ca610452366004613861565b610e59565b34801561046357600080fd5b5061048661047236600461365e565b600090815260046020526040902054151590565b60405190151581526020016101d4565b6102ae6104a43660046134e9565b610f5c565b6102ae6104b736600461389c565b6110d7565b3480156104c857600080fd5b506101fd6104d73660046134e9565b61117c565b3480156104e857600080fd5b506101ca6111b4565b3480156104fd57600080fd5b5060405173ffffffffffffffffffffffffffffffffffffffff7f00000000000000000000000000000000000000000000000000000000000000001681526020016101d4565b6101ca6105503660046138ae565b6111c3565b34801561056157600080fd5b5061022b611281565b60004282825b818110156105a35761059b3387878481811061058e5761058e6138e9565b905060200201358561128b565b600101610570565b50909150505b92915050565b6060600280546105be90613918565b80601f01602080910402602001604051908101604052809291908181526020018280546105ea90613918565b80156106375780601f1061060c57610100808354040283529160200191610637565b820191906000526020600020905b81548152906001019060200180831161061a57829003601f168201915b5050505050905090565b606060008267ffffffffffffffff81111561065e5761065e613965565b60405190808252806020026020018201604052801561069157816020015b606081526020019060019003908161067c5790505b509050600034815b85811015610763577fffffffffffffffffffffffffffffffffffffffffffffffffffffffffffffffff86018114368888848181106106d9576106d96138e9565b90506020028101906106eb9190613994565b90506000610712823561070160208501856139d2565b61070a91613c4b565b33888761138a565b80519091506107219086613cbf565b9450806020015187858151811061073a5761073a6138e9565b60200260200101819052508060200151518601955050505061075c8160010190565b9050610699565b5061076e8383611abd565b9695505050505050565b604080516001808252818301909252600091816020015b604080518082019091526000808252602082015281526020019060019003908161078f5790505090506107ca36839003830160208401613d48565b816000815181106107dd576107dd6138e9565b60209081029190910101526107f782358233346001611b8a565b505050565b3460005b828110156108de577fffffffffffffffffffffffffffffffffffffffffffffffffffffffffffffffff8301811436858584818110610840576108406138e9565b90506020028101906108529190613994565b90506108bf81356108666020840184613d64565b808060200260200160405190810160405280939291908181526020016000905b828210156108b2576108a360408302860136819003810190613d48565b81526020019060010190610886565b5050505050338786611b8a565b6108c99085613cbf565b935050506108d78160010190565b9050610800565b50505050565b6000426105a983826121e6565b606061091c7f00000000000000000000000000000000000000000000000000000000000000006122a8565b6109457f00000000000000000000000000000000000000000000000000000000000000006122a8565b61096e7f00000000000000000000000000000000000000000000000000000000000000006122a8565b60405160200161098093929190613dcc565b604051602081830303815290604052905090565b606060008267ffffffffffffffff8111156109b1576109b1613965565b6040519080825280602002602001820160405280156109e457816020015b60608152602001906001900390816109cf5790505b509050600034815b85811015610763577fffffffffffffffffffffffffffffffffffffffffffffffffffffffffffffffff8601811436888884818110610a2c57610a2c6138e9565b9050602002810190610a3e9190613e42565b9050366000610a5060208401846139d2565b9092509050801580610a705750610a6a6040840184613e76565b82141590505b15610aa7576040517f947d5a8400000000000000000000000000000000000000000000000000000000815260040160405180910390fd5b60005b81811015610b6957610b61604051806080016040528086600001358152602001858585818110610adc57610adc6138e9565b9050602002810190610aee9190613edd565b610af790613f11565b8152602001610b096040880188613e76565b85818110610b1957610b196138e9565b905060600201803603810190610b2f9190613f88565b8152602001610b4460808801606089016135e5565b73ffffffffffffffffffffffffffffffffffffffff169052612366565b600101610aaa565b506000610b928435610b7b8486613c4b565b610b8b60808801606089016135e5565b8a8961138a565b8051909150610ba19088613cbf565b96508060200151898781518110610bba57610bba6138e9565b6020026020010181905250806020015151880197505050505050610bde8160010190565b90506109ec565b600060608082808083610c187f0000000000000000000000000000000000000000000000000000000000000000836124f6565b610c437f000000000000000000000000000000000000000000000000000000000000000060016124f6565b604080516000808252602082019092527f0f000000000000000000000000000000000000000000000000000000000000009b939a50919850469750309650945092509050565b604080516101408101825260008082526020820181905291810182905260608082018390526080820183905260a0820183905260c0820183905260e0820183905261010082019290925261012081019190915260008281526004602081815260409283902083516101408101855281548152600182015492810192909252600281015467ffffffffffffffff808216958401959095526801000000000000000081048516606084015270010000000000000000000000000000000090049093166080820152600383015460a08201529082015473ffffffffffffffffffffffffffffffffffffffff90811660c0830152600583015490811660e083015274010000000000000000000000000000000000000000900460ff16151561010082015260068201805491929161012084019190610dc290613918565b80601f0160208091040260200160405190810160405280929190818152602001828054610dee90613918565b8015610e3b5780601f10610e1057610100808354040283529160200191610e3b565b820191906000526020600020905b815481529060010190602001808311610e1e57829003601f168201915b5050505050815250509050919050565b6000426105a933848361128b565b6000610e6c610e6783613fa4565b612366565b604080516001808252818301909252600091816020015b6040805160c081018252600080825260208083018290529282018190526060808301829052608083015260a082015282527fffffffffffffffffffffffffffffffffffffffffffffffffffffffffffffffff909201910181610e83579050509050610ef16020840184613edd565b610efa90613f11565b81600081518110610f0d57610f0d6138e9565b6020908102919091010152610f36833582610f2e60c0870160a088016135e5565b34600161138a565b60200151600081518110610f4c57610f4c6138e9565b6020026020010151915050919050565b3460005b828110156108de577fffffffffffffffffffffffffffffffffffffffffffffffffffffffffffffffff830181146000858584818110610fa157610fa16138e9565b9050602002810190610fb39190613e42565b610fbc90614089565b60208101518051919250901580610fd95750816040015151815114155b15611010576040517f947d5a8400000000000000000000000000000000000000000000000000000000815260040160405180910390fd5b60005b81518110156110a157611099604051806080016040528085600001518152602001848481518110611046576110466138e9565b6020026020010151815260200185604001518481518110611069576110696138e9565b60200260200101518152602001856060015173ffffffffffffffffffffffffffffffffffffffff168152506125a1565b600101611013565b506110b782600001518284606001518887611b8a565b6110c19086613cbf565b94505050506110d08160010190565b9050610f60565b6110ee6110e936839003830183614168565b6125a1565b604080516001808252818301909252600091816020015b604080518082019091526000808252602082015281526020019060019003908161110557905050905061114036839003830160208401613d48565b81600081518110611153576111536138e9565b60209081029190910101526107f782358261117460e0860160c087016135e5565b346001611b8a565b60004282825b818110156105a3576111ac86868381811061119f5761119f6138e9565b90506020020135846121e6565b600101611182565b60006111be612630565b905090565b604080516001808252818301909252600091829190816020015b6040805160c081018252600080825260208083018290529282018190526060808301829052608083015260a082015282527fffffffffffffffffffffffffffffffffffffffffffffffffffffffffffffffff9092019101816111dd57905050905061124b6020840184613edd565b61125490613f11565b81600081518110611267576112676138e9565b6020908102919091010152610f368335823334600161138a565b60606111be6108f1565b73ffffffffffffffffffffffffffffffffffffffff83166000908152600660209081526040808320858452918290529091205467ffffffffffffffff16156112ff576040517fec9d6eeb00000000000000000000000000000000000000000000000000000000815260040160405180910390fd5b60008381526020829052604080822080547fffffffffffffffffffffffffffffffffffffffffffffffff00000000000000001667ffffffffffffffff861690811790915590519091859173ffffffffffffffffffffffffffffffffffffffff8816917f92a1f7a41a7c585a8b09e25b195e225b1d43248daca46b0faf9e0792777a222991a450505050565b60408051808201909152600081526060602082015284516040805180820190915260008152606060208201528167ffffffffffffffff8111156113cf576113cf613965565b6040519080825280602002602001820160405280156113f8578160200160208202803683370190505b5060208201526040517fa2ea7c6e000000000000000000000000000000000000000000000000000000008152600481018990526000907f000000000000000000000000000000000000000000000000000000000000000073ffffffffffffffffffffffffffffffffffffffff169063a2ea7c6e90602401600060405180830381865afa15801561148c573d6000803e3d6000fd5b505050506040513d6000823e601f3d9081017fffffffffffffffffffffffffffffffffffffffffffffffffffffffffffffffe01682016040526114d291908101906141c4565b805190915061150d576040517fbf37b20e00000000000000000000000000000000000000000000000000000000815260040160405180910390fd5b60008367ffffffffffffffff81111561152857611528613965565b6040519080825280602002602001820160405280156115c757816020015b60408051610140810182526000808252602080830182905292820181905260608083018290526080830182905260a0830182905260c0830182905260e0830182905261010083019190915261012082015282527fffffffffffffffffffffffffffffffffffffffffffffffffffffffffffffffff9092019101816115465790505b50905060008467ffffffffffffffff8111156115e5576115e5613965565b60405190808252806020026020018201604052801561160e578160200160208202803683370190505b50905060005b85811015611a9c5760008b8281518110611630576116306138e9565b60200260200101519050600067ffffffffffffffff16816020015167ffffffffffffffff161415801561167b57504267ffffffffffffffff16816020015167ffffffffffffffff1611155b156116b2576040517f08e8b93700000000000000000000000000000000000000000000000000000000815260040160405180910390fd5b84604001511580156116c5575080604001515b156116fc576040517f157bd4c300000000000000000000000000000000000000000000000000000000815260040160405180910390fd5b60006040518061014001604052806000801b81526020018f81526020016117204290565b67ffffffffffffffff168152602001836020015167ffffffffffffffff168152602001600067ffffffffffffffff16815260200183606001518152602001836000015173ffffffffffffffffffffffffffffffffffffffff1681526020018d73ffffffffffffffffffffffffffffffffffffffff16815260200183604001511515815260200183608001518152509050600080600090505b6117c28382612768565b600081815260046020526040902054909250156117e1576001016117b8565b81835260008281526004602081815260409283902086518155908601516001820155918501516002830180546060880151608089015167ffffffffffffffff908116700100000000000000000000000000000000027fffffffffffffffff0000000000000000ffffffffffffffffffffffffffffffff92821668010000000000000000027fffffffffffffffffffffffffffffffff000000000000000000000000000000009094169190951617919091171691909117905560a0850151600383015560c0850151908201805473ffffffffffffffffffffffffffffffffffffffff9283167fffffffffffffffffffffffff000000000000000000000000000000000000000090911617905560e0850151600583018054610100880151151574010000000000000000000000000000000000000000027fffffffffffffffffffffff0000000000000000000000000000000000000000009091169290931691909117919091179055610120840151849190600682019061196090826142ea565b5050506060840151156119b75760608401516000908152600460205260409020546119b7576040517fc5723b5100000000000000000000000000000000000000000000000000000000815260040160405180910390fd5b828786815181106119ca576119ca6138e9565b60200260200101819052508360a001518686815181106119ec576119ec6138e9565b6020026020010181815250508189602001518681518110611a0f57611a0f6138e9565b6020026020010181815250508f8e73ffffffffffffffffffffffffffffffffffffffff16856000015173ffffffffffffffffffffffffffffffffffffffff167f8bf46bf4cfd674fa735a3d63ec1c9ad4153f033c290341f3a588b75685141b3585604051611a7f91815260200190565b60405180910390a450505050611a958160010190565b9050611614565b50611aac83838360008c8c6127c7565b845250919998505050505050505050565b606060008267ffffffffffffffff811115611ada57611ada613965565b604051908082528060200260200182016040528015611b03578160200160208202803683370190505b5090506000805b85518110156105a3576000868281518110611b2757611b276138e9565b6020026020010151905060005b8151811015611b8057818181518110611b4f57611b4f6138e9565b6020026020010151858581518110611b6957611b696138e9565b602090810291909101015260019384019301611b34565b5050600101611b0a565b6040517fa2ea7c6e00000000000000000000000000000000000000000000000000000000815260048101869052600090819073ffffffffffffffffffffffffffffffffffffffff7f0000000000000000000000000000000000000000000000000000000000000000169063a2ea7c6e90602401600060405180830381865afa158015611c1a573d6000803e3d6000fd5b505050506040513d6000823e601f3d9081017fffffffffffffffffffffffffffffffffffffffffffffffffffffffffffffffe0168201604052611c6091908101906141c4565b8051909150611c9b576040517fbf37b20e00000000000000000000000000000000000000000000000000000000815260040160405180910390fd5b855160008167ffffffffffffffff811115611cb857611cb8613965565b604051908082528060200260200182016040528015611d5757816020015b60408051610140810182526000808252602080830182905292820181905260608083018290526080830182905260a0830182905260c0830182905260e0830182905261010083019190915261012082015282527fffffffffffffffffffffffffffffffffffffffffffffffffffffffffffffffff909201910181611cd65790505b50905060008267ffffffffffffffff811115611d7557611d75613965565b604051908082528060200260200182016040528015611d9e578160200160208202803683370190505b50905060005b838110156121c85760008a8281518110611dc057611dc06138e9565b6020908102919091018101518051600090815260049092526040909120805491925090611e19576040517fc5723b5100000000000000000000000000000000000000000000000000000000815260040160405180910390fd5b8c816001015414611e56576040517fbf37b20e00000000000000000000000000000000000000000000000000000000815260040160405180910390fd5b600581015473ffffffffffffffffffffffffffffffffffffffff8c8116911614611eac576040517f4ca8886700000000000000000000000000000000000000000000000000000000815260040160405180910390fd5b600581015474010000000000000000000000000000000000000000900460ff16611f02576040517f157bd4c300000000000000000000000000000000000000000000000000000000815260040160405180910390fd5b6002810154700100000000000000000000000000000000900467ffffffffffffffff1615611f5c576040517f905e710700000000000000000000000000000000000000000000000000000000815260040160405180910390fd5b426002820180547fffffffffffffffff0000000000000000ffffffffffffffffffffffffffffffff811670010000000000000000000000000000000067ffffffffffffffff948516810291821793849055604080516101408101825287548152600188015460208201529386169286169290921791830191909152680100000000000000008304841660608301529091049091166080820152600382015460a0820152600482015473ffffffffffffffffffffffffffffffffffffffff90811660c0830152600583015490811660e083015274010000000000000000000000000000000000000000900460ff161515610100820152600682018054839161012084019161206890613918565b80601f016020809104026020016040519081016040528092919081815260200182805461209490613918565b80156120e15780601f106120b6576101008083540402835291602001916120e1565b820191906000526020600020905b8154815290600101906020018083116120c457829003601f168201915b5050505050815250508584815181106120fc576120fc6138e9565b6020026020010181905250816020015184848151811061211e5761211e6138e9565b60200260200101818152505080600101548b73ffffffffffffffffffffffffffffffffffffffff168260040160009054906101000a900473ffffffffffffffffffffffffffffffffffffffff1673ffffffffffffffffffffffffffffffffffffffff167ff930a6e2523c9cc298691873087a740550b8fc85a0680830414c148ed927f61585600001516040516121b691815260200190565b60405180910390a45050600101611da4565b506121d884838360018b8b6127c7565b9a9950505050505050505050565b60008281526005602052604090205467ffffffffffffffff1615612236576040517f2e26794600000000000000000000000000000000000000000000000000000000815260040160405180910390fd5b60008281526005602052604080822080547fffffffffffffffffffffffffffffffffffffffffffffffff00000000000000001667ffffffffffffffff85169081179091559051909184917f5aafceeb1c7ad58e4a84898bdee37c02c0fc46e7d24e6b60e8209449f183459f9190a35050565b606060006122b583612ba1565b600101905060008167ffffffffffffffff8111156122d5576122d5613965565b6040519080825280601f01601f1916602001820160405280156122ff576020820181803683370190505b5090508181016020015b7fffffffffffffffffffffffffffffffffffffffffffffffffffffffffffffffff017f3031323334353637383961626364656600000000000000000000000000000000600a86061a8153600a850494508461230957509392505050565b60208082015160408084015160608086015173ffffffffffffffffffffffffffffffffffffffff166000908152600386528381208054600181019091558751865187890151878901519589015160808a01518051908c01209851999a97999498959761246d97612452977fdbfdf8dc2b135c26253e00d5b6cbe6f20457e003fd526d97cea183883570de619791939290918c9101978852602088019690965273ffffffffffffffffffffffffffffffffffffffff94909416604087015267ffffffffffffffff9290921660608601521515608085015260a084015260c083015260e08201526101000190565b60405160208183030381529060405280519060200120612c83565b9050846060015173ffffffffffffffffffffffffffffffffffffffff166124a282856000015186602001518760400151612ccb565b73ffffffffffffffffffffffffffffffffffffffff16146124ef576040517f8baa579f00000000000000000000000000000000000000000000000000000000815260040160405180910390fd5b5050505050565b606060ff83146125105761250983612cf3565b90506105a9565b81805461251c90613918565b80601f016020809104026020016040519081016040528092919081815260200182805461254890613918565b80156125955780601f1061256a57610100808354040283529160200191612595565b820191906000526020600020905b81548152906001019060200180831161257857829003601f168201915b505050505090506105a9565b60208181015160408084015160608086015173ffffffffffffffffffffffffffffffffffffffff166000908152600386528381208054600181019091558751865186517fa98d02348410c9c76735e0d0bb1396f4015ac2bb9615f9c2611d19d7a8a996509981019990995295880152918601939093526080850181905292939092919061246d9060a001612452565b60003073ffffffffffffffffffffffffffffffffffffffff7f00000000000000000000000000000000000000000000000000000000000000001614801561269657507f000000000000000000000000000000000000000000000000000000000000000046145b156126c057507f000000000000000000000000000000000000000000000000000000000000000090565b6111be604080517f8b73c3c69bb8fe3d512ecc4cf759cc79239f7b179b0ffacaa9a75d522b39400f60208201527f0000000000000000000000000000000000000000000000000000000000000000918101919091527f000000000000000000000000000000000000000000000000000000000000000060608201524660808201523060a082015260009060c00160405160208183030381529060405280519060200120905090565b60208083015160c084015160e0850151604080870151606088015161010089015160a08a01516101208b015194516000996127a999989796918c9101614404565b60405160208183030381529060405280519060200120905092915050565b8451600090600181900361281f5761281788886000815181106127ec576127ec6138e9565b602002602001015188600081518110612807576128076138e9565b6020026020010151888888612d32565b91505061076e565b602088015173ffffffffffffffffffffffffffffffffffffffff81166128b15760005b828110156128a55787818151811061285c5761285c6138e9565b602002602001015160001461289d576040517f1574f9f300000000000000000000000000000000000000000000000000000000815260040160405180910390fd5b600101612842565b5060009250505061076e565b6000805b838110156129db5760008982815181106128d1576128d16138e9565b602002602001015190508060001415801561295857508373ffffffffffffffffffffffffffffffffffffffff1663ce46e0466040518163ffffffff1660e01b8152600401602060405180830381865afa158015612932573d6000803e3d6000fd5b505050506040513d601f19601f8201168201806040525081019061295691906144e2565b155b1561298f576040517f1574f9f300000000000000000000000000000000000000000000000000000000815260040160405180910390fd5b878111156129c9576040517f1101129400000000000000000000000000000000000000000000000000000000815260040160405180910390fd5b968790039691909101906001016128b5565b508615612ab6576040517f88e5b2d900000000000000000000000000000000000000000000000000000000815273ffffffffffffffffffffffffffffffffffffffff8316906388e5b2d9908390612a38908d908d906004016144ff565b60206040518083038185885af1158015612a56573d6000803e3d6000fd5b50505050506040513d601f19601f82011682018060405250810190612a7b91906144e2565b612ab1576040517fbf2f3a8b00000000000000000000000000000000000000000000000000000000815260040160405180910390fd5b612b85565b6040517f91db0b7e00000000000000000000000000000000000000000000000000000000815273ffffffffffffffffffffffffffffffffffffffff8316906391db0b7e908390612b0c908d908d906004016144ff565b60206040518083038185885af1158015612b2a573d6000803e3d6000fd5b50505050506040513d601f19601f82011682018060405250810190612b4f91906144e2565b612b85576040517fe8bee83900000000000000000000000000000000000000000000000000000000815260040160405180910390fd5b8415612b9457612b9486613048565b9998505050505050505050565b6000807a184f03e93ff9f4daa797ed6e38ed64bf6a1f0100000000000000008310612bea577a184f03e93ff9f4daa797ed6e38ed64bf6a1f010000000000000000830492506040015b6d04ee2d6d415b85acef81000000008310612c16576d04ee2d6d415b85acef8100000000830492506020015b662386f26fc100008310612c3457662386f26fc10000830492506010015b6305f5e1008310612c4c576305f5e100830492506008015b6127108310612c6057612710830492506004015b60648310612c72576064830492506002015b600a83106105a95760010192915050565b60006105a9612c90612630565b836040517f19010000000000000000000000000000000000000000000000000000000000008152600281019290925260228201526042902090565b6000806000612cdc8787878761305b565b91509150612ce98161314a565b5095945050505050565b60606000612d0083613302565b604080516020808252818301909252919250600091906020820181803683375050509182525060208101929092525090565b602086015160009073ffffffffffffffffffffffffffffffffffffffff8116612d97578515612d8d576040517f1574f9f300000000000000000000000000000000000000000000000000000000815260040160405180910390fd5b600091505061076e565b8515801590612e1257508073ffffffffffffffffffffffffffffffffffffffff1663ce46e0466040518163ffffffff1660e01b8152600401602060405180830381865afa158015612dec573d6000803e3d6000fd5b505050506040513d601f19601f82011682018060405250810190612e1091906144e2565b155b15612e49576040517f1574f9f300000000000000000000000000000000000000000000000000000000815260040160405180910390fd5b83861115612e83576040517f1101129400000000000000000000000000000000000000000000000000000000815260040160405180910390fd5b85840393508415612f60576040517fe49617e100000000000000000000000000000000000000000000000000000000815273ffffffffffffffffffffffffffffffffffffffff82169063e49617e1908890612ee2908b90600401613822565b60206040518083038185885af1158015612f00573d6000803e3d6000fd5b50505050506040513d601f19601f82011682018060405250810190612f2591906144e2565b612f5b576040517fccf3bb2700000000000000000000000000000000000000000000000000000000815260040160405180910390fd5b61302d565b6040517fe60c350500000000000000000000000000000000000000000000000000000000815273ffffffffffffffffffffffffffffffffffffffff82169063e60c3505908890612fb4908b90600401613822565b60206040518083038185885af1158015612fd2573d6000803e3d6000fd5b50505050506040513d601f19601f82011682018060405250810190612ff791906144e2565b61302d576040517fbd8ba84d00000000000000000000000000000000000000000000000000000000815260040160405180910390fd5b821561303c5761303c84613048565b50939695505050505050565b8015613058576130583382613343565b50565b6000807f7fffffffffffffffffffffffffffffff5d576e7357a4501ddfe92f46681b20a08311156130925750600090506003613141565b6040805160008082526020820180845289905260ff881692820192909252606081018690526080810185905260019060a0016020604051602081039080840390855afa1580156130e6573d6000803e3d6000fd5b50506040517fffffffffffffffffffffffffffffffffffffffffffffffffffffffffffffffe0015191505073ffffffffffffffffffffffffffffffffffffffff811661313a57600060019250925050613141565b9150600090505b94509492505050565b600081600481111561315e5761315e614593565b036131665750565b600181600481111561317a5761317a614593565b036131e6576040517f08c379a000000000000000000000000000000000000000000000000000000000815260206004820152601860248201527f45434453413a20696e76616c6964207369676e6174757265000000000000000060448201526064015b60405180910390fd5b60028160048111156131fa576131fa614593565b03613261576040517f08c379a000000000000000000000000000000000000000000000000000000000815260206004820152601f60248201527f45434453413a20696e76616c6964207369676e6174757265206c656e6774680060448201526064016131dd565b600381600481111561327557613275614593565b03613058576040517f08c379a000000000000000000000000000000000000000000000000000000000815260206004820152602260248201527f45434453413a20696e76616c6964207369676e6174757265202773272076616c60448201527f756500000000000000000000000000000000000000000000000000000000000060648201526084016131dd565b600060ff8216601f8111156105a9576040517fb3512b0c00000000000000000000000000000000000000000000000000000000815260040160405180910390fd5b804710156133ad576040517f08c379a000000000000000000000000000000000000000000000000000000000815260206004820152601d60248201527f416464726573733a20696e73756666696369656e742062616c616e636500000060448201526064016131dd565b60008273ffffffffffffffffffffffffffffffffffffffff168260405160006040518083038185875af1925050503d8060008114613407576040519150601f19603f3d011682016040523d82523d6000602084013e61340c565b606091505b50509050806107f7576040517f08c379a000000000000000000000000000000000000000000000000000000000815260206004820152603a60248201527f416464726573733a20756e61626c6520746f2073656e642076616c75652c207260448201527f6563697069656e74206d6179206861766520726576657274656400000000000060648201526084016131dd565b60008083601f8401126134af57600080fd5b50813567ffffffffffffffff8111156134c757600080fd5b6020830191508360208260051b85010111156134e257600080fd5b9250929050565b600080602083850312156134fc57600080fd5b823567ffffffffffffffff81111561351357600080fd5b61351f8582860161349d565b90969095509350505050565b60005b8381101561354657818101518382015260200161352e565b50506000910152565b6000815180845261356781602086016020860161352b565b601f017fffffffffffffffffffffffffffffffffffffffffffffffffffffffffffffffe0169290920160200192915050565b6020815260006135ac602083018461354f565b9392505050565b73ffffffffffffffffffffffffffffffffffffffff8116811461305857600080fd5b80356135e0816135b3565b919050565b6000602082840312156135f757600080fd5b81356135ac816135b3565b6020808252825182820181905260009190848201906040850190845b8181101561363a5783518352928401929184019160010161361e565b50909695505050505050565b60006060828403121561365857600080fd5b50919050565b60006020828403121561367057600080fd5b5035919050565b600081518084526020808501945080840160005b838110156136a75781518752958201959082019060010161368b565b509495945050505050565b7fff000000000000000000000000000000000000000000000000000000000000008816815260e0602082015260006136ed60e083018961354f565b82810360408401526136ff818961354f565b905086606084015273ffffffffffffffffffffffffffffffffffffffff861660808401528460a084015282810360c08401526121d88185613677565b600061014082518452602083015160208501526040830151613769604086018267ffffffffffffffff169052565b506060830151613785606086018267ffffffffffffffff169052565b5060808301516137a1608086018267ffffffffffffffff169052565b5060a083015160a085015260c08301516137d360c086018273ffffffffffffffffffffffffffffffffffffffff169052565b5060e08301516137fb60e086018273ffffffffffffffffffffffffffffffffffffffff169052565b50610100838101511515908501526101208084015181860183905261076e8387018261354f565b6020815260006135ac602083018461373b565b6000806040838503121561384857600080fd5b8235613853816135b3565b946020939093013593505050565b60006020828403121561387357600080fd5b813567ffffffffffffffff81111561388a57600080fd5b820160c081850312156135ac57600080fd5b600060e0828403121561365857600080fd5b6000602082840312156138c057600080fd5b813567ffffffffffffffff8111156138d757600080fd5b8201604081850312156135ac57600080fd5b7f4e487b7100000000000000000000000000000000000000000000000000000000600052603260045260246000fd5b600181811c9082168061392c57607f821691505b602082108103613658577f4e487b7100000000000000000000000000000000000000000000000000000000600052602260045260246000fd5b7f4e487b7100000000000000000000000000000000000000000000000000000000600052604160045260246000fd5b600082357fffffffffffffffffffffffffffffffffffffffffffffffffffffffffffffffc18336030181126139c857600080fd5b9190910192915050565b60008083357fffffffffffffffffffffffffffffffffffffffffffffffffffffffffffffffe1843603018112613a0757600080fd5b83018035915067ffffffffffffffff821115613a2257600080fd5b6020019150600581901b36038213156134e257600080fd5b60405160c0810167ffffffffffffffff81118282101715613a5d57613a5d613965565b60405290565b6040516080810167ffffffffffffffff81118282101715613a5d57613a5d613965565b604051601f82017fffffffffffffffffffffffffffffffffffffffffffffffffffffffffffffffe016810167ffffffffffffffff81118282101715613acd57613acd613965565b604052919050565b600067ffffffffffffffff821115613aef57613aef613965565b5060051b60200190565b801515811461305857600080fd5b80356135e081613af9565b600067ffffffffffffffff821115613b2c57613b2c613965565b50601f017fffffffffffffffffffffffffffffffffffffffffffffffffffffffffffffffe01660200190565b600082601f830112613b6957600080fd5b8135613b7c613b7782613b12565b613a86565b818152846020838601011115613b9157600080fd5b816020850160208301376000918101602001919091529392505050565b600060c08284031215613bc057600080fd5b613bc8613a3a565b90508135613bd5816135b3565b8152602082013567ffffffffffffffff8082168214613bf357600080fd5b816020840152613c0560408501613b07565b6040840152606084013560608401526080840135915080821115613c2857600080fd5b50613c3584828501613b58565b60808301525060a082013560a082015292915050565b6000613c59613b7784613ad5565b80848252602080830192508560051b850136811115613c7757600080fd5b855b81811015613cb357803567ffffffffffffffff811115613c995760008081fd5b613ca536828a01613bae565b865250938201938201613c79565b50919695505050505050565b818103818111156105a9577f4e487b7100000000000000000000000000000000000000000000000000000000600052601160045260246000fd5b600060408284031215613d0b57600080fd5b6040516040810181811067ffffffffffffffff82111715613d2e57613d2e613965565b604052823581526020928301359281019290925250919050565b600060408284031215613d5a57600080fd5b6135ac8383613cf9565b60008083357fffffffffffffffffffffffffffffffffffffffffffffffffffffffffffffffe1843603018112613d9957600080fd5b83018035915067ffffffffffffffff821115613db457600080fd5b6020019150600681901b36038213156134e257600080fd5b60008451613dde81846020890161352b565b80830190507f2e000000000000000000000000000000000000000000000000000000000000008082528551613e1a816001850160208a0161352b565b60019201918201528351613e3581600284016020880161352b565b0160020195945050505050565b600082357fffffffffffffffffffffffffffffffffffffffffffffffffffffffffffffff818336030181126139c857600080fd5b60008083357fffffffffffffffffffffffffffffffffffffffffffffffffffffffffffffffe1843603018112613eab57600080fd5b83018035915067ffffffffffffffff821115613ec657600080fd5b60200191506060810236038213156134e257600080fd5b600082357fffffffffffffffffffffffffffffffffffffffffffffffffffffffffffffff418336030181126139c857600080fd5b60006105a93683613bae565b600060608284031215613f2f57600080fd5b6040516060810181811067ffffffffffffffff82111715613f5257613f52613965565b604052905080823560ff81168114613f6957600080fd5b8082525060208301356020820152604083013560408201525092915050565b600060608284031215613f9a57600080fd5b6135ac8383613f1d565b600060c08236031215613fb657600080fd5b613fbe613a63565b82358152602083013567ffffffffffffffff811115613fdc57600080fd5b613fe836828601613bae565b602083015250613ffb3660408501613f1d565b604082015260a083013561400e816135b3565b606082015292915050565b600082601f83011261402a57600080fd5b8135602061403a613b7783613ad5565b8281526060928302850182019282820191908785111561405957600080fd5b8387015b8581101561407c5761406f8982613f1d565b845292840192810161405d565b5090979650505050505050565b60006080823603121561409b57600080fd5b6140a3613a63565b8235815260208084013567ffffffffffffffff808211156140c357600080fd5b9085019036601f8301126140d657600080fd5b81356140e4613b7782613ad5565b81815260069190911b8301840190848101903683111561410357600080fd5b938501935b8285101561412c5761411a3686613cf9565b82528582019150604085019450614108565b8086880152505050604086013592508083111561414857600080fd5b505061415636828601614019565b60408301525061400e606084016135d5565b600060e0828403121561417a57600080fd5b614182613a63565b823581526141938460208501613cf9565b60208201526141a58460608501613f1d565b604082015260c08301356141b8816135b3565b60608201529392505050565b600060208083850312156141d757600080fd5b825167ffffffffffffffff808211156141ef57600080fd5b908401906080828703121561420357600080fd5b61420b613a63565b825181528383015161421c816135b3565b81850152604083015161422e81613af9565b604082015260608301518281111561424557600080fd5b80840193505086601f84011261425a57600080fd5b8251915061426a613b7783613b12565b828152878584860101111561427e57600080fd5b61428d8386830187870161352b565b60608201529695505050505050565b601f8211156107f757600081815260208120601f850160051c810160208610156142c35750805b601f850160051c820191505b818110156142e2578281556001016142cf565b505050505050565b815167ffffffffffffffff81111561430457614304613965565b614318816143128454613918565b8461429c565b602080601f83116001811461436b57600084156143355750858301515b7fffffffffffffffffffffffffffffffffffffffffffffffffffffffffffffffff600386901b1c1916600185901b1785556142e2565b6000858152602081207fffffffffffffffffffffffffffffffffffffffffffffffffffffffffffffffe08616915b828110156143b857888601518255948401946001909101908401614399565b50858210156143f457878501517fffffffffffffffffffffffffffffffffffffffffffffffffffffffffffffffff600388901b60f8161c191681555b5050505050600190811b01905550565b89815260007fffffffffffffffffffffffffffffffffffffffff000000000000000000000000808b60601b166020840152808a60601b166034840152507fffffffffffffffff000000000000000000000000000000000000000000000000808960c01b166048840152808860c01b1660508401525085151560f81b6058830152846059830152835161449d81607985016020880161352b565b80830190507fffffffff000000000000000000000000000000000000000000000000000000008460e01b166079820152607d81019150509a9950505050505050505050565b6000602082840312156144f457600080fd5b81516135ac81613af9565b6000604082016040835280855180835260608501915060608160051b8601019250602080880160005b83811015614574577fffffffffffffffffffffffffffffffffffffffffffffffffffffffffffffffa088870301855261456286835161373b565b95509382019390820190600101614528565b50508584038187015250505061458a8185613677565b95945050505050565b7f4e487b7100000000000000000000000000000000000000000000000000000000600052602160045260246000fdfea164736f6c6343000813000a",
  "linkReferences": {},
  "deployedLinkReferences": {}
}