{
  "_format": "hh-sol-artifact-1",
  "contractName": "TR8",
  "sourceName": "contracts/TR8.sol",
  "abi": [
    {
      "inputs": [],
      "stateMutability": "nonpayable",
      "type": "constructor"
    },
    {
      "inputs": [],
      "name": "AccessDenied",
      "type": "error"
    },
    {
      "inputs": [],
      "name": "AlreadyMinted",
      "type": "error"
    },
    {
      "inputs": [],
      "name": "ExpiredDrop",
      "type": "error"
    },
    {
      "inputs": [],
      "name": "InsufficientValue",
      "type": "error"
    },
    {
      "inputs": [],
      "name": "InvalidDrop",
      "type": "error"
    },
    {
      "inputs": [],
      "name": "InvalidEAS",
      "type": "error"
    },
    {
      "inputs": [],
      "name": "InvalidNameSpace",
      "type": "error"
    },
    {
      "inputs": [],
      "name": "NotAuthorized",
      "type": "error"
    },
    {
      "inputs": [],
      "name": "NotPayable",
      "type": "error"
    },
    {
      "anonymous": false,
      "inputs": [
        {
          "indexed": false,
          "internalType": "uint8",
          "name": "version",
          "type": "uint8"
        }
      ],
      "name": "Initialized",
      "type": "event"
    },
    {
      "anonymous": false,
      "inputs": [
        {
          "indexed": true,
          "internalType": "address",
          "name": "previousOwner",
          "type": "address"
        },
        {
          "indexed": true,
          "internalType": "address",
          "name": "newOwner",
          "type": "address"
        }
      ],
      "name": "OwnershipTransferred",
      "type": "event"
    },
    {
      "anonymous": false,
      "inputs": [
        {
          "indexed": true,
          "internalType": "address",
          "name": "owner",
          "type": "address"
        },
        {
          "indexed": false,
          "internalType": "string",
          "name": "nameSpace",
          "type": "string"
        },
        {
          "indexed": false,
          "internalType": "address",
          "name": "nftAddress",
          "type": "address"
        },
        {
          "indexed": true,
          "internalType": "bytes32",
          "name": "uid",
          "type": "bytes32"
        }
      ],
      "name": "TR8DropCreated",
      "type": "event"
    },
    {
      "inputs": [
        {
          "components": [
            {
              "internalType": "bytes32",
              "name": "uid",
              "type": "bytes32"
            },
            {
              "internalType": "bytes32",
              "name": "schema",
              "type": "bytes32"
            },
            {
              "internalType": "uint64",
              "name": "time",
              "type": "uint64"
            },
            {
              "internalType": "uint64",
              "name": "expirationTime",
              "type": "uint64"
            },
            {
              "internalType": "uint64",
              "name": "revocationTime",
              "type": "uint64"
            },
            {
              "internalType": "bytes32",
              "name": "refUID",
              "type": "bytes32"
            },
            {
              "internalType": "address",
              "name": "recipient",
              "type": "address"
            },
            {
              "internalType": "address",
              "name": "attester",
              "type": "address"
            },
            {
              "internalType": "bool",
              "name": "revocable",
              "type": "bool"
            },
            {
              "internalType": "bytes",
              "name": "data",
              "type": "bytes"
            }
          ],
          "internalType": "struct Attestation",
          "name": "attestation",
          "type": "tuple"
        }
      ],
      "name": "attest",
      "outputs": [
        {
          "internalType": "bool",
          "name": "",
          "type": "bool"
        }
      ],
      "stateMutability": "payable",
      "type": "function"
    },
    {
      "inputs": [
        {
          "components": [
            {
              "internalType": "bytes32",
              "name": "uid",
              "type": "bytes32"
            },
            {
              "internalType": "bytes32",
              "name": "schema",
              "type": "bytes32"
            },
            {
              "internalType": "uint64",
              "name": "time",
              "type": "uint64"
            },
            {
              "internalType": "uint64",
              "name": "expirationTime",
              "type": "uint64"
            },
            {
              "internalType": "uint64",
              "name": "revocationTime",
              "type": "uint64"
            },
            {
              "internalType": "bytes32",
              "name": "refUID",
              "type": "bytes32"
            },
            {
              "internalType": "address",
              "name": "recipient",
              "type": "address"
            },
            {
              "internalType": "address",
              "name": "attester",
              "type": "address"
            },
            {
              "internalType": "bool",
              "name": "revocable",
              "type": "bool"
            },
            {
              "internalType": "bytes",
              "name": "data",
              "type": "bytes"
            }
          ],
          "internalType": "struct Attestation",
          "name": "attestation",
          "type": "tuple"
        }
      ],
      "name": "cloneNFT",
      "outputs": [
        {
          "internalType": "address",
          "name": "",
          "type": "address"
        }
      ],
      "stateMutability": "nonpayable",
      "type": "function"
    },
    {
      "inputs": [
        {
          "internalType": "address",
          "name": "",
          "type": "address"
        }
      ],
      "name": "dropForNft",
      "outputs": [
        {
          "internalType": "bytes32",
          "name": "",
          "type": "bytes32"
        }
      ],
      "stateMutability": "view",
      "type": "function"
    },
    {
      "inputs": [
        {
          "internalType": "uint256",
          "name": "tokenId",
          "type": "uint256"
        }
      ],
      "name": "getAssestationForTokenId",
      "outputs": [
        {
          "components": [
            {
              "internalType": "bytes32",
              "name": "uid",
              "type": "bytes32"
            },
            {
              "internalType": "bytes32",
              "name": "schema",
              "type": "bytes32"
            },
            {
              "internalType": "uint64",
              "name": "time",
              "type": "uint64"
            },
            {
              "internalType": "uint64",
              "name": "expirationTime",
              "type": "uint64"
            },
            {
              "internalType": "uint64",
              "name": "revocationTime",
              "type": "uint64"
            },
            {
              "internalType": "bytes32",
              "name": "refUID",
              "type": "bytes32"
            },
            {
              "internalType": "address",
              "name": "recipient",
              "type": "address"
            },
            {
              "internalType": "address",
              "name": "attester",
              "type": "address"
            },
            {
              "internalType": "bool",
              "name": "revocable",
              "type": "bool"
            },
            {
              "internalType": "bytes",
              "name": "data",
              "type": "bytes"
            }
          ],
          "internalType": "struct Attestation",
          "name": "",
          "type": "tuple"
        }
      ],
      "stateMutability": "view",
      "type": "function"
    },
    {
      "inputs": [
        {
          "internalType": "uint256",
          "name": "tokenId",
          "type": "uint256"
        }
      ],
      "name": "getDataUri",
      "outputs": [
        {
          "internalType": "string",
          "name": "",
          "type": "string"
        }
      ],
      "stateMutability": "view",
      "type": "function"
    },
    {
      "inputs": [
        {
          "internalType": "uint256",
          "name": "tokenId",
          "type": "uint256"
        }
      ],
      "name": "getDropAssestationForTokenId",
      "outputs": [
        {
          "components": [
            {
              "internalType": "bytes32",
              "name": "uid",
              "type": "bytes32"
            },
            {
              "internalType": "bytes32",
              "name": "schema",
              "type": "bytes32"
            },
            {
              "internalType": "uint64",
              "name": "time",
              "type": "uint64"
            },
            {
              "internalType": "uint64",
              "name": "expirationTime",
              "type": "uint64"
            },
            {
              "internalType": "uint64",
              "name": "revocationTime",
              "type": "uint64"
            },
            {
              "internalType": "bytes32",
              "name": "refUID",
              "type": "bytes32"
            },
            {
              "internalType": "address",
              "name": "recipient",
              "type": "address"
            },
            {
              "internalType": "address",
              "name": "attester",
              "type": "address"
            },
            {
              "internalType": "bool",
              "name": "revocable",
              "type": "bool"
            },
            {
              "internalType": "bytes",
              "name": "data",
              "type": "bytes"
            }
          ],
          "internalType": "struct Attestation",
          "name": "",
          "type": "tuple"
        }
      ],
      "stateMutability": "view",
      "type": "function"
    },
    {
      "inputs": [
        {
          "internalType": "uint256",
          "name": "tokenId",
          "type": "uint256"
        }
      ],
      "name": "getNftForTokenId",
      "outputs": [
        {
          "internalType": "address",
          "name": "",
          "type": "address"
        }
      ],
      "stateMutability": "view",
      "type": "function"
    },
    {
      "inputs": [
        {
          "internalType": "string",
          "name": "_nameSpace",
          "type": "string"
        }
      ],
      "name": "getNftsForNameSpace",
      "outputs": [
        {
          "internalType": "address[]",
          "name": "",
          "type": "address[]"
        }
      ],
      "stateMutability": "view",
      "type": "function"
    },
    {
      "inputs": [],
      "name": "homeChain",
      "outputs": [
        {
          "internalType": "bool",
          "name": "",
          "type": "bool"
        }
      ],
      "stateMutability": "view",
      "type": "function"
    },
    {
      "inputs": [
        {
          "internalType": "contract IEAS",
          "name": "eas",
          "type": "address"
        },
        {
          "internalType": "address",
          "name": "_nftImplementation",
          "type": "address"
        },
        {
          "internalType": "address",
          "name": "_transporter",
          "type": "address"
        }
      ],
      "name": "initialize",
      "outputs": [],
      "stateMutability": "nonpayable",
      "type": "function"
    },
    {
      "inputs": [],
      "name": "isPayable",
      "outputs": [
        {
          "internalType": "bool",
          "name": "",
          "type": "bool"
        }
      ],
      "stateMutability": "pure",
      "type": "function"
    },
    {
      "inputs": [
        {
          "internalType": "address",
          "name": "forwarder",
          "type": "address"
        }
      ],
      "name": "isTrustedForwarder",
      "outputs": [
        {
          "internalType": "bool",
          "name": "",
          "type": "bool"
        }
      ],
      "stateMutability": "view",
      "type": "function"
    },
    {
      "inputs": [
        {
          "components": [
            {
              "internalType": "bytes32",
              "name": "uid",
              "type": "bytes32"
            },
            {
              "internalType": "bytes32",
              "name": "schema",
              "type": "bytes32"
            },
            {
              "internalType": "uint64",
              "name": "time",
              "type": "uint64"
            },
            {
              "internalType": "uint64",
              "name": "expirationTime",
              "type": "uint64"
            },
            {
              "internalType": "uint64",
              "name": "revocationTime",
              "type": "uint64"
            },
            {
              "internalType": "bytes32",
              "name": "refUID",
              "type": "bytes32"
            },
            {
              "internalType": "address",
              "name": "recipient",
              "type": "address"
            },
            {
              "internalType": "address",
              "name": "attester",
              "type": "address"
            },
            {
              "internalType": "bool",
              "name": "revocable",
              "type": "bool"
            },
            {
              "internalType": "bytes",
              "name": "data",
              "type": "bytes"
            }
          ],
          "internalType": "struct Attestation[]",
          "name": "attestations",
          "type": "tuple[]"
        },
        {
          "internalType": "uint256[]",
          "name": "values",
          "type": "uint256[]"
        }
      ],
      "name": "multiAttest",
      "outputs": [
        {
          "internalType": "bool",
          "name": "",
          "type": "bool"
        }
      ],
      "stateMutability": "payable",
      "type": "function"
    },
    {
      "inputs": [
        {
          "components": [
            {
              "internalType": "bytes32",
              "name": "uid",
              "type": "bytes32"
            },
            {
              "internalType": "bytes32",
              "name": "schema",
              "type": "bytes32"
            },
            {
              "internalType": "uint64",
              "name": "time",
              "type": "uint64"
            },
            {
              "internalType": "uint64",
              "name": "expirationTime",
              "type": "uint64"
            },
            {
              "internalType": "uint64",
              "name": "revocationTime",
              "type": "uint64"
            },
            {
              "internalType": "bytes32",
              "name": "refUID",
              "type": "bytes32"
            },
            {
              "internalType": "address",
              "name": "recipient",
              "type": "address"
            },
            {
              "internalType": "address",
              "name": "attester",
              "type": "address"
            },
            {
              "internalType": "bool",
              "name": "revocable",
              "type": "bool"
            },
            {
              "internalType": "bytes",
              "name": "data",
              "type": "bytes"
            }
          ],
          "internalType": "struct Attestation[]",
          "name": "attestations",
          "type": "tuple[]"
        },
        {
          "internalType": "uint256[]",
          "name": "values",
          "type": "uint256[]"
        }
      ],
      "name": "multiRevoke",
      "outputs": [
        {
          "internalType": "bool",
          "name": "",
          "type": "bool"
        }
      ],
      "stateMutability": "payable",
      "type": "function"
    },
    {
      "inputs": [
        {
          "internalType": "string",
          "name": "_nameSpace",
          "type": "string"
        }
      ],
      "name": "nameSpaceExists",
      "outputs": [
        {
          "internalType": "bool",
          "name": "",
          "type": "bool"
        }
      ],
      "stateMutability": "view",
      "type": "function"
    },
    {
      "inputs": [
        {
          "internalType": "bytes32",
          "name": "",
          "type": "bytes32"
        }
      ],
      "name": "nftForDrop",
      "outputs": [
        {
          "internalType": "address",
          "name": "",
          "type": "address"
        }
      ],
      "stateMutability": "view",
      "type": "function"
    },
    {
      "inputs": [],
      "name": "owner",
      "outputs": [
        {
          "internalType": "address",
          "name": "",
          "type": "address"
        }
      ],
      "stateMutability": "view",
      "type": "function"
    },
    {
      "inputs": [
        {
          "internalType": "uint256",
          "name": "tokenId",
          "type": "uint256"
        }
      ],
      "name": "ownerOf",
      "outputs": [
        {
          "internalType": "address",
          "name": "",
          "type": "address"
        }
      ],
      "stateMutability": "view",
      "type": "function"
    },
    {
      "inputs": [],
      "name": "renounceOwnership",
      "outputs": [],
      "stateMutability": "nonpayable",
      "type": "function"
    },
    {
      "inputs": [
        {
          "components": [
            {
              "internalType": "bytes32",
              "name": "uid",
              "type": "bytes32"
            },
            {
              "internalType": "bytes32",
              "name": "schema",
              "type": "bytes32"
            },
            {
              "internalType": "uint64",
              "name": "time",
              "type": "uint64"
            },
            {
              "internalType": "uint64",
              "name": "expirationTime",
              "type": "uint64"
            },
            {
              "internalType": "uint64",
              "name": "revocationTime",
              "type": "uint64"
            },
            {
              "internalType": "bytes32",
              "name": "refUID",
              "type": "bytes32"
            },
            {
              "internalType": "address",
              "name": "recipient",
              "type": "address"
            },
            {
              "internalType": "address",
              "name": "attester",
              "type": "address"
            },
            {
              "internalType": "bool",
              "name": "revocable",
              "type": "bool"
            },
            {
              "internalType": "bytes",
              "name": "data",
              "type": "bytes"
            }
          ],
          "internalType": "struct Attestation",
          "name": "attestation",
          "type": "tuple"
        }
      ],
      "name": "revoke",
      "outputs": [
        {
          "internalType": "bool",
          "name": "",
          "type": "bool"
        }
      ],
      "stateMutability": "payable",
      "type": "function"
    },
    {
      "inputs": [
        {
          "internalType": "bytes32",
          "name": "_dropSchema",
          "type": "bytes32"
        }
      ],
      "name": "setDropSchema",
      "outputs": [],
      "stateMutability": "nonpayable",
      "type": "function"
    },
    {
      "inputs": [
        {
          "internalType": "bool",
          "name": "_homeChain",
          "type": "bool"
        }
      ],
      "name": "setHomeChain",
      "outputs": [],
      "stateMutability": "nonpayable",
      "type": "function"
    },
    {
      "inputs": [
        {
          "internalType": "uint256",
          "name": "tokenId",
          "type": "uint256"
        }
      ],
      "name": "tokenExists",
      "outputs": [
        {
          "internalType": "bool",
          "name": "",
          "type": "bool"
        }
      ],
      "stateMutability": "view",
      "type": "function"
    },
    {
      "inputs": [
        {
          "internalType": "uint256",
          "name": "tokenId",
          "type": "uint256"
        }
      ],
      "name": "tokenURI",
      "outputs": [
        {
          "internalType": "string",
          "name": "",
          "type": "string"
        }
      ],
      "stateMutability": "view",
      "type": "function"
    },
    {
      "inputs": [
        {
          "internalType": "address",
          "name": "newOwner",
          "type": "address"
        }
      ],
      "name": "transferOwnership",
      "outputs": [],
      "stateMutability": "nonpayable",
      "type": "function"
    },
    {
      "inputs": [],
      "name": "transporter",
      "outputs": [
        {
          "internalType": "address",
          "name": "",
          "type": "address"
        }
      ],
      "stateMutability": "view",
      "type": "function"
    },
    {
      "inputs": [],
      "name": "version",
      "outputs": [
        {
          "internalType": "string",
          "name": "",
          "type": "string"
        }
      ],
      "stateMutability": "view",
      "type": "function"
    },
    {
      "stateMutability": "payable",
      "type": "receive"
    }
  ],
  "bytecode": "0x61010060405234801561001157600080fd5b5073b539068872230f20456cf38ec52ef2f91af4ae49600160008082608081815250508160a081815250508060c081815250505050508073ffffffffffffffffffffffffffffffffffffffff1660e08173ffffffffffffffffffffffffffffffffffffffff16815250505060805160a05160c05160e051615a0a620000b66000396000610a7201526000610a24015260006109fb015260006109d20152615a0a6000f3fe60806040526004361061019f5760003560e01c806391db0b7e116100ec578063c38c05951161008a578063e42b021211610064578063e42b0212146106a0578063e49617e1146106cb578063e60c3505146106fb578063f2fde38b1461072b576101e4565b8063c38c0595146105fb578063c87b56dd14610638578063ce46e04614610675576101e4565b8063b62951d0116100c6578063b62951d01461052f578063b65fd00a1461056c578063c0c53b8b14610595578063c3237c12146105be576101e4565b806391db0b7e1461048557806399772c34146104b5578063a8971c5d146104f2576101e4565b80636139955211610159578063715018a611610133578063715018a6146103e85780637468a52b146103ff57806388e5b2d91461042a5780638da5cb5b1461045a576101e4565b806361399552146103455780636352211e146103825780636afbb009146103bf576101e4565b8062923f9e146101e9578063376f51f3146102265780633926f3481461026357806354fd4d50146102a0578063572b6c05146102cb57806357f193fa14610308576101e4565b366101e4576101ac610754565b6101e2576040517f1574f9f300000000000000000000000000000000000000000000000000000000815260040160405180910390fd5b005b600080fd5b3480156101f557600080fd5b50610210600480360381019061020b91906132a3565b610759565b60405161021d91906132eb565b60405180910390f35b34801561023257600080fd5b5061024d6004803603810190610248919061333c565b6108b5565b60405161025a91906133aa565b60405180910390f35b34801561026f57600080fd5b5061028a600480360381019061028591906132a3565b6108e8565b60405161029791906133aa565b60405180910390f35b3480156102ac57600080fd5b506102b56109cb565b6040516102c29190613455565b60405180910390f35b3480156102d757600080fd5b506102f260048036038101906102ed91906134a3565b610a6e565b6040516102ff91906132eb565b60405180910390f35b34801561031457600080fd5b5061032f600480360381019061032a9190613535565b610ac6565b60405161033c9190613640565b60405180910390f35b34801561035157600080fd5b5061036c600480360381019061036791906132a3565b610b90565b6040516103799190613455565b60405180910390f35b34801561038e57600080fd5b506103a960048036038101906103a491906132a3565b610e2f565b6040516103b691906133aa565b60405180910390f35b3480156103cb57600080fd5b506103e660048036038101906103e1919061333c565b610f8b565b005b3480156103f457600080fd5b506103fd610f9d565b005b34801561040b57600080fd5b50610414610fb1565b60405161042191906132eb565b60405180910390f35b610444600480360381019061043f919061370e565b610fc4565b60405161045191906132eb565b60405180910390f35b34801561046657600080fd5b5061046f6110a3565b60405161047c91906133aa565b60405180910390f35b61049f600480360381019061049a919061370e565b6110cd565b6040516104ac91906132eb565b60405180910390f35b3480156104c157600080fd5b506104dc60048036038101906104d79190613535565b6111ac565b6040516104e991906132eb565b60405180910390f35b3480156104fe57600080fd5b50610519600480360381019061051491906132a3565b611203565b60405161052691906138ff565b60405180910390f35b34801561053b57600080fd5b50610556600480360381019061055191906132a3565b61135a565b60405161056391906138ff565b60405180910390f35b34801561057857600080fd5b50610593600480360381019061058e919061394d565b61140d565b005b3480156105a157600080fd5b506105bc60048036038101906105b791906139b8565b611432565b005b3480156105ca57600080fd5b506105e560048036038101906105e09190613a30565b61160e565b6040516105f291906133aa565b60405180910390f35b34801561060757600080fd5b50610622600480360381019061061d91906134a3565b6116dd565b60405161062f9190613a88565b60405180910390f35b34801561064457600080fd5b5061065f600480360381019061065a91906132a3565b6116f5565b60405161066c9190613455565b60405180910390f35b34801561068157600080fd5b5061068a610754565b60405161069791906132eb565b60405180910390f35b3480156106ac57600080fd5b506106b5611856565b6040516106c291906133aa565b60405180910390f35b6106e560048036038101906106e09190613a30565b61187c565b6040516106f291906132eb565b60405180910390f35b61071560048036038101906107109190613a30565b611897565b60405161072291906132eb565b60405180910390f35b34801561073757600080fd5b50610752600480360381019061074d91906134a3565b6118b2565b005b600090565b6000609860008060029054906101000a900473ffffffffffffffffffffffffffffffffffffffff1673ffffffffffffffffffffffffffffffffffffffff1663a3112a648560001b6040518263ffffffff1660e01b81526004016107bc9190613a88565b600060405180830381865afa1580156107d9573d6000803e3d6000fd5b505050506040513d6000823e3d601f19601f820116820180604052508101906108029190613d4b565b60a00151815260200190815260200160002060009054906101000a900473ffffffffffffffffffffffffffffffffffffffff1673ffffffffffffffffffffffffffffffffffffffff16634f558e79836040518263ffffffff1660e01b815260040161086d9190613da3565b602060405180830381865afa15801561088a573d6000803e3d6000fd5b505050506040513d601f19601f820116820180604052508101906108ae9190613dbe565b9050919050565b60986020528060005260406000206000915054906101000a900473ffffffffffffffffffffffffffffffffffffffff1681565b6000609860008060029054906101000a900473ffffffffffffffffffffffffffffffffffffffff1673ffffffffffffffffffffffffffffffffffffffff1663a3112a648560001b6040518263ffffffff1660e01b815260040161094b9190613a88565b600060405180830381865afa158015610968573d6000803e3d6000fd5b505050506040513d6000823e3d601f19601f820116820180604052508101906109919190613d4b565b60a00151815260200190815260200160002060009054906101000a900473ffffffffffffffffffffffffffffffffffffffff169050919050565b60606109f67f0000000000000000000000000000000000000000000000000000000000000000611935565b610a1f7f0000000000000000000000000000000000000000000000000000000000000000611935565b610a487f0000000000000000000000000000000000000000000000000000000000000000611935565b604051602001610a5a93929190613e73565b604051602081830303815290604052905090565b60007f000000000000000000000000000000000000000000000000000000000000000073ffffffffffffffffffffffffffffffffffffffff168273ffffffffffffffffffffffffffffffffffffffff16149050919050565b6060609a60008484604051602001610adf929190613eee565b604051602081830303815290604052805190602001208152602001908152602001600020805480602002602001604051908101604052809291908181526020018280548015610b8357602002820191906000526020600020905b8160009054906101000a900473ffffffffffffffffffffffffffffffffffffffff1673ffffffffffffffffffffffffffffffffffffffff1681526020019060010190808311610b39575b5050505050905092915050565b60606000806000803073ffffffffffffffffffffffffffffffffffffffff1663a8971c5d876040518263ffffffff1660e01b8152600401610bd19190613da3565b600060405180830381865afa158015610bee573d6000803e3d6000fd5b505050506040513d6000823e3d601f19601f82011682018060405250810190610c179190613d4b565b6101200151806020019051810190610c2f919061440b565b975097509750505050509350606060005b8451811015610cea576000811115610c755781604051602001610c63919061458f565b60405160208183030381529060405291505b81858281518110610c8957610c886145b5565b5b602002602001015160000151868381518110610ca857610ca76145b5565b5b602002602001015160200151604051602001610cc693929190614656565b60405160208183030381529060405291508080610ce2906146e3565b915050610c40565b508115610d185780604051602001610d02919061479d565b6040516020818303038152906040529050610d3b565b80604051602001610d299190614831565b60405160208183030381529060405290505b606060005b8451811015610dc6576000811115610d755781604051602001610d63919061458f565b60405160208183030381529060405291505b81858281518110610d8957610d886145b5565b5b6020026020010151604051602001610da2929190614879565b60405160208183030381529060405291508080610dbe906146e3565b915050610d40565b50610e038660200151876060015188608001518486604051602001610def959493929190614a83565b604051602081830303815290604052611a03565b604051602001610e139190614b5c565b6040516020818303038152906040529650505050505050919050565b6000609860008060029054906101000a900473ffffffffffffffffffffffffffffffffffffffff1673ffffffffffffffffffffffffffffffffffffffff1663a3112a648560001b6040518263ffffffff1660e01b8152600401610e929190613a88565b600060405180830381865afa158015610eaf573d6000803e3d6000fd5b505050506040513d6000823e3d601f19601f82011682018060405250810190610ed89190613d4b565b60a00151815260200190815260200160002060009054906101000a900473ffffffffffffffffffffffffffffffffffffffff1673ffffffffffffffffffffffffffffffffffffffff16636352211e836040518263ffffffff1660e01b8152600401610f439190613da3565b602060405180830381865afa158015610f60573d6000803e3d6000fd5b505050506040513d601f19601f82011682018060405250810190610f849190614b7e565b9050919050565b610f93611b66565b80609d8190555050565b610fa5611b66565b610faf6000611be4565b565b609760009054906101000a900460ff1681565b6000610fce611caa565b6000858590509050600034905060005b82811015611093576000868683818110610ffb57610ffa6145b5565b5b9050602002013590508281111561103e576040517f1101129400000000000000000000000000000000000000000000000000000000815260040160405180910390fd5b61106c898984818110611054576110536145b5565b5b90506020028101906110669190614bba565b82611d33565b61107d57600094505050505061109b565b80830392505061108c8161205b565b9050610fde565b506001925050505b949350505050565b6000606560009054906101000a900473ffffffffffffffffffffffffffffffffffffffff16905090565b60006110d7611caa565b6000858590509050600034905060005b8281101561119c576000868683818110611104576111036145b5565b5b90506020020135905082811115611147576040517f1101129400000000000000000000000000000000000000000000000000000000815260040160405180910390fd5b61117589898481811061115d5761115c6145b5565b5b905060200281019061116f9190614bba565b82612068565b6111865760009450505050506111a4565b8083039250506111958161205b565b90506110e7565b506001925050505b949350505050565b60006111fb83838080601f016020809104026020016040519081016040528093929190818152602001838380828437600081840152601f19601f8201169050808301925050505050505061209a565b905092915050565b61120b6131b1565b600060029054906101000a900473ffffffffffffffffffffffffffffffffffffffff1673ffffffffffffffffffffffffffffffffffffffff1663a3112a64600060029054906101000a900473ffffffffffffffffffffffffffffffffffffffff1673ffffffffffffffffffffffffffffffffffffffff1663a3112a648560001b6040518263ffffffff1660e01b81526004016112a79190613a88565b600060405180830381865afa1580156112c4573d6000803e3d6000fd5b505050506040513d6000823e3d601f19601f820116820180604052508101906112ed9190613d4b565b60a001516040518263ffffffff1660e01b815260040161130d9190613a88565b600060405180830381865afa15801561132a573d6000803e3d6000fd5b505050506040513d6000823e3d601f19601f820116820180604052508101906113539190613d4b565b9050919050565b6113626131b1565b600060029054906101000a900473ffffffffffffffffffffffffffffffffffffffff1673ffffffffffffffffffffffffffffffffffffffff1663a3112a648360001b6040518263ffffffff1660e01b81526004016113c09190613a88565b600060405180830381865afa1580156113dd573d6000803e3d6000fd5b505050506040513d6000823e3d601f19601f820116820180604052508101906114069190613d4b565b9050919050565b611415611b66565b80609760006101000a81548160ff02191690831515021790555050565b60008060019054906101000a900460ff161590508080156114635750600160008054906101000a900460ff1660ff16105b806114905750611472306120e2565b15801561148f5750600160008054906101000a900460ff1660ff16145b5b6114cf576040517f08c379a00000000000000000000000000000000000000000000000000000000081526004016114c690614c55565b60405180910390fd5b60016000806101000a81548160ff021916908360ff160217905550801561150c576001600060016101000a81548160ff0219169083151502179055505b61151584612105565b61151d612160565b82609b60006101000a81548173ffffffffffffffffffffffffffffffffffffffff021916908373ffffffffffffffffffffffffffffffffffffffff16021790555081609c60006101000a81548173ffffffffffffffffffffffffffffffffffffffff021916908373ffffffffffffffffffffffffffffffffffffffff1602179055506115af6115aa6121b9565b611be4565b80156116085760008060016101000a81548160ff0219169083151502179055507f7f26b83ff96e1f2b6a682f133852f6798a09c465da95921460cefb384740249860016040516115ff9190614cc7565b60405180910390a15b50505050565b6000609c60009054906101000a900473ffffffffffffffffffffffffffffffffffffffff1673ffffffffffffffffffffffffffffffffffffffff166116516121b9565b73ffffffffffffffffffffffffffffffffffffffff161461169e576040517fea8e4eb500000000000000000000000000000000000000000000000000000000815260040160405180910390fd5b6000828061012001906116b19190614ce2565b8101906116be919061516b565b5050505050505090506116d58382600001516121c8565b915050919050565b60996020528060005260406000206000915090505481565b6060609860008060029054906101000a900473ffffffffffffffffffffffffffffffffffffffff1673ffffffffffffffffffffffffffffffffffffffff1663a3112a648560001b6040518263ffffffff1660e01b81526004016117589190613a88565b600060405180830381865afa158015611775573d6000803e3d6000fd5b505050506040513d6000823e3d601f19601f8201168201806040525081019061179e9190613d4b565b60a00151815260200190815260200160002060009054906101000a900473ffffffffffffffffffffffffffffffffffffffff1673ffffffffffffffffffffffffffffffffffffffff1663c87b56dd836040518263ffffffff1660e01b81526004016118099190613da3565b600060405180830381865afa158015611826573d6000803e3d6000fd5b505050506040513d6000823e3d601f19601f8201168201806040525081019061184f91906152c9565b9050919050565b609c60009054906101000a900473ffffffffffffffffffffffffffffffffffffffff1681565b6000611886611caa565b6118908234611d33565b9050919050565b60006118a1611caa565b6118ab8234612068565b9050919050565b6118ba611b66565b600073ffffffffffffffffffffffffffffffffffffffff168173ffffffffffffffffffffffffffffffffffffffff1603611929576040517f08c379a000000000000000000000000000000000000000000000000000000000815260040161192090615384565b60405180910390fd5b61193281611be4565b50565b606060006001611944846122ce565b01905060008167ffffffffffffffff81111561196357611962613aa8565b5b6040519080825280601f01601f1916602001820160405280156119955781602001600182028036833780820191505090505b509050600082602001820190505b6001156119f8578080600190039150507f3031323334353637383961626364656600000000000000000000000000000000600a86061a8153600a85816119ec576119eb6153a4565b5b049450600085036119a3575b819350505050919050565b60606000825103611a2557604051806020016040528060008152509050611b61565b60006040518060600160405280604081526020016159956040913990506000600360028551611a5491906153d3565b611a5e9190615407565b6004611a6a9190615438565b67ffffffffffffffff811115611a8357611a82613aa8565b5b6040519080825280601f01601f191660200182016040528015611ab55781602001600182028036833780820191505090505b509050600182016020820185865187015b80821015611b21576003820191508151603f8160121c168501518453600184019350603f81600c1c168501518453600184019350603f8160061c168501518453600184019350603f8116850151845360018401935050611ac6565b5050600386510660018114611b3d5760028114611b5057611b58565b603d6001830353603d6002830353611b58565b603d60018303535b50505080925050505b919050565b611b6e6121b9565b73ffffffffffffffffffffffffffffffffffffffff16611b8c6110a3565b73ffffffffffffffffffffffffffffffffffffffff1614611be2576040517f08c379a0000000000000000000000000000000000000000000000000000000008152600401611bd9906154c6565b60405180910390fd5b565b6000606560009054906101000a900473ffffffffffffffffffffffffffffffffffffffff16905081606560006101000a81548173ffffffffffffffffffffffffffffffffffffffff021916908373ffffffffffffffffffffffffffffffffffffffff1602179055508173ffffffffffffffffffffffffffffffffffffffff168173ffffffffffffffffffffffffffffffffffffffff167f8be0079c531659141344cd1fd0a4f28419497f9722a3daafe3b4186f6b6457e060405160405180910390a35050565b600060029054906101000a900473ffffffffffffffffffffffffffffffffffffffff1673ffffffffffffffffffffffffffffffffffffffff163373ffffffffffffffffffffffffffffffffffffffff1614611d31576040517f4ca8886700000000000000000000000000000000000000000000000000000000815260040160405180910390fd5b565b600080600060029054906101000a900473ffffffffffffffffffffffffffffffffffffffff1673ffffffffffffffffffffffffffffffffffffffff1663a3112a648560a001356040518263ffffffff1660e01b8152600401611d959190613a88565b600060405180830381865afa158015611db2573d6000803e3d6000fd5b505050506040513d6000823e3d601f19601f82011682018060405250810190611ddb9190613d4b565b6101200151806020019051810190611df3919061440b565b505050505050915050600073ffffffffffffffffffffffffffffffffffffffff168173ffffffffffffffffffffffffffffffffffffffff1614611ee9578073ffffffffffffffffffffffffffffffffffffffff1663928090298585609860008960a00135815260200190815260200160002060009054906101000a900473ffffffffffffffffffffffffffffffffffffffff166040518463ffffffff1660e01b8152600401611ea493929190615722565b6020604051808303816000875af1158015611ec3573d6000803e3d6000fd5b505050506040513d601f19601f82011682018060405250810190611ee79190613dbe565b505b609860008560a00135815260200190815260200160002060009054906101000a900473ffffffffffffffffffffffffffffffffffffffff1673ffffffffffffffffffffffffffffffffffffffff16634f558e79856000013560001c6040518263ffffffff1660e01b8152600401611f609190613da3565b602060405180830381865afa158015611f7d573d6000803e3d6000fd5b505050506040513d601f19601f82011682018060405250810190611fa19190613dbe565b1561205057609860008560a00135815260200190815260200160002060009054906101000a900473ffffffffffffffffffffffffffffffffffffffff1673ffffffffffffffffffffffffffffffffffffffff166342966c68856000013560001c6040518263ffffffff1660e01b815260040161201d9190613da3565b600060405180830381600087803b15801561203757600080fd5b505af115801561204b573d6000803e3d6000fd5b505050505b600191505092915050565b6000600182019050919050565b6000609d548360200135036120875761208083612421565b9050612094565b6120918383612675565b90505b92915050565b600080609a6000846040516020016120b29190615760565b60405160208183030381529060405280519060200120815260200190815260200160002080549050119050919050565b6000808273ffffffffffffffffffffffffffffffffffffffff163b119050919050565b600060019054906101000a900460ff16612154576040517f08c379a000000000000000000000000000000000000000000000000000000000815260040161214b906157e9565b60405180910390fd5b61215d81612e25565b50565b600060019054906101000a900460ff166121af576040517f08c379a00000000000000000000000000000000000000000000000000000000081526004016121a6906157e9565b60405180910390fd5b6121b7612f1e565b565b60006121c3612f7f565b905090565b6000806121fb609b60009054906101000a900473ffffffffffffffffffffffffffffffffffffffff168560000135612fc2565b90508073ffffffffffffffffffffffffffffffffffffffff16639f13cdaf856040518263ffffffff1660e01b81526004016122369190615809565b600060405180830381600087803b15801561225057600080fd5b505af1158015612264573d6000803e3d6000fd5b5050505083600001356122756121b9565b73ffffffffffffffffffffffffffffffffffffffff167f35b28bf8d232d9df81a64393277adce5a947a5135ef5262ebe4da97378849f3b85846040516122bc92919061582b565b60405180910390a38091505092915050565b600080600090507a184f03e93ff9f4daa797ed6e38ed64bf6a1f010000000000000000831061232c577a184f03e93ff9f4daa797ed6e38ed64bf6a1f0100000000000000008381612322576123216153a4565b5b0492506040810190505b6d04ee2d6d415b85acef81000000008310612369576d04ee2d6d415b85acef8100000000838161235f5761235e6153a4565b5b0492506020810190505b662386f26fc10000831061239857662386f26fc10000838161238e5761238d6153a4565b5b0492506010810190505b6305f5e10083106123c1576305f5e10083816123b7576123b66153a4565b5b0492506008810190505b61271083106123e65761271083816123dc576123db6153a4565b5b0492506004810190505b6064831061240957606483816123ff576123fe6153a4565b5b0492506002810190505b600a8310612418576001810190505b80915050919050565b600080828061012001906124359190614ce2565b810190612442919061516b565b5050505050505090506124598382600001516121c8565b609860008560000135815260200190815260200160002060006101000a81548173ffffffffffffffffffffffffffffffffffffffff021916908373ffffffffffffffffffffffffffffffffffffffff160217905550826000013560996000609860008760000135815260200190815260200160002060009054906101000a900473ffffffffffffffffffffffffffffffffffffffff1673ffffffffffffffffffffffffffffffffffffffff1673ffffffffffffffffffffffffffffffffffffffff1681526020019081526020016000208190555061253a816000015161209a565b156125965761255f8360e001602081019061255591906134a3565b826000015161307e565b612595576040517fe094a98600000000000000000000000000000000000000000000000000000000815260040160405180910390fd5b5b609a600082600001516040516020016125af9190615760565b604051602081830303815290604052805190602001208152602001908152602001600020609860008560000135815260200190815260200160002060009054906101000a900473ffffffffffffffffffffffffffffffffffffffff169080600181540180825580915050600190039060005260206000200160009091909190916101000a81548173ffffffffffffffffffffffffffffffffffffffff021916908373ffffffffffffffffffffffffffffffffffffffff1602179055506001915050919050565b60008073ffffffffffffffffffffffffffffffffffffffff16609860008560a00135815260200190815260200160002060009054906101000a900473ffffffffffffffffffffffffffffffffffffffff1673ffffffffffffffffffffffffffffffffffffffff1603612713576040517fa593f61e00000000000000000000000000000000000000000000000000000000815260040160405180910390fd5b60008060029054906101000a900473ffffffffffffffffffffffffffffffffffffffff1673ffffffffffffffffffffffffffffffffffffffff1663a3112a648560a001356040518263ffffffff1660e01b81526004016127739190613a88565b600060405180830381865afa158015612790573d6000803e3d6000fd5b505050506040513d6000823e3d601f19601f820116820180604052508101906127b99190613d4b565b6060015167ffffffffffffffff16118015612885575042600060029054906101000a900473ffffffffffffffffffffffffffffffffffffffff1673ffffffffffffffffffffffffffffffffffffffff1663a3112a648560a001356040518263ffffffff1660e01b815260040161282f9190613a88565b600060405180830381865afa15801561284c573d6000803e3d6000fd5b505050506040513d6000823e3d601f19601f820116820180604052508101906128759190613d4b565b6060015167ffffffffffffffff16105b156128bc576040517f5e912e6900000000000000000000000000000000000000000000000000000000815260040160405180910390fd5b6000609860008560a00135815260200190815260200160002060009054906101000a900473ffffffffffffffffffffffffffffffffffffffff1673ffffffffffffffffffffffffffffffffffffffff166370a082318560c001602081019061292491906134a3565b6040518263ffffffff1660e01b815260040161294091906133aa565b602060405180830381865afa15801561295d573d6000803e3d6000fd5b505050506040513d601f19601f820116820180604052508101906129819190615870565b11156129b9576040517fddefae2800000000000000000000000000000000000000000000000000000000815260040160405180910390fd5b6000609860008560a00135815260200190815260200160002060009054906101000a900473ffffffffffffffffffffffffffffffffffffffff1673ffffffffffffffffffffffffffffffffffffffff16637f5a7c7b6040518163ffffffff1660e01b8152600401602060405180830381865afa158015612a3d573d6000803e3d6000fd5b505050506040513d601f19601f82011682018060405250810190612a619190614b7e565b9050600073ffffffffffffffffffffffffffffffffffffffff168173ffffffffffffffffffffffffffffffffffffffff1614612b50578073ffffffffffffffffffffffffffffffffffffffff16636ef26a558585609860008960a00135815260200190815260200160002060009054906101000a900473ffffffffffffffffffffffffffffffffffffffff166040518463ffffffff1660e01b8152600401612b0b93929190615722565b6020604051808303816000875af1158015612b2a573d6000803e3d6000fd5b505050506040513d601f19601f82011682018060405250810190612b4e9190613dbe565b505b609860008560a00135815260200190815260200160002060009054906101000a900473ffffffffffffffffffffffffffffffffffffffff1673ffffffffffffffffffffffffffffffffffffffff166391d148547f114e74f6ea3bd819998f78687bfcb11b140da08e9b7d222fa9c1f1ba1f2aa1228660e0016020810190612bd791906134a3565b6040518363ffffffff1660e01b8152600401612bf492919061589d565b602060405180830381865afa158015612c11573d6000803e3d6000fd5b505050506040513d601f19601f82011682018060405250810190612c359190613dbe565b80612d215750609860008560a00135815260200190815260200160002060009054906101000a900473ffffffffffffffffffffffffffffffffffffffff1673ffffffffffffffffffffffffffffffffffffffff166391d148547f9f2df0fed2c77648de5860a4cc508cd0818c85b8b8a1ab4ceeef8d981c8956a68660c0016020810190612cc291906134a3565b6040518363ffffffff1660e01b8152600401612cdf92919061589d565b602060405180830381865afa158015612cfc573d6000803e3d6000fd5b505050506040513d601f19601f82011682018060405250810190612d209190613dbe565b5b15612de857609860008560a00135815260200190815260200160002060009054906101000a900473ffffffffffffffffffffffffffffffffffffffff1673ffffffffffffffffffffffffffffffffffffffff1663cd279c7c8560c0016020810190612d8c91906134a3565b866000013560001c6040518363ffffffff1660e01b8152600401612db19291906158ec565b600060405180830381600087803b158015612dcb57600080fd5b505af1158015612ddf573d6000803e3d6000fd5b50505050612e1a565b6040517fea8e4eb500000000000000000000000000000000000000000000000000000000815260040160405180910390fd5b600191505092915050565b600060019054906101000a900460ff16612e74576040517f08c379a0000000000000000000000000000000000000000000000000000000008152600401612e6b906157e9565b60405180910390fd5b600073ffffffffffffffffffffffffffffffffffffffff168173ffffffffffffffffffffffffffffffffffffffff1603612eda576040517f83780ffe00000000000000000000000000000000000000000000000000000000815260040160405180910390fd5b80600060026101000a81548173ffffffffffffffffffffffffffffffffffffffff021916908373ffffffffffffffffffffffffffffffffffffffff16021790555050565b600060019054906101000a900460ff16612f6d576040517f08c379a0000000000000000000000000000000000000000000000000000000008152600401612f64906157e9565b60405180910390fd5b612f7d612f786121b9565b611be4565b565b6000612f8a33610a6e565b8015612f9b57506014600036905010155b15612faf57601436033560601c9050612fbe565b612fb76131a9565b9050612fbf565b5b90565b6000763d602d80600a3d3981f3363d3d373d3d3d363d730000008360601b60e81c176000526e5af43d82803e903d91602b57fd5bf38360781b1760205281603760096000f59050600073ffffffffffffffffffffffffffffffffffffffff168173ffffffffffffffffffffffffffffffffffffffff1603613078576040517f08c379a000000000000000000000000000000000000000000000000000000000815260040161306f90615974565b60405180910390fd5b92915050565b60006130898261209a565b156131a357609a6000836040516020016130a39190615760565b6040516020818303038152906040528051906020012081526020019081526020016000206000815481106130da576130d96145b5565b5b9060005260206000200160009054906101000a900473ffffffffffffffffffffffffffffffffffffffff1673ffffffffffffffffffffffffffffffffffffffff166391d148547f114e74f6ea3bd819998f78687bfcb11b140da08e9b7d222fa9c1f1ba1f2aa122856040518363ffffffff1660e01b815260040161315f92919061589d565b602060405180830381865afa15801561317c573d6000803e3d6000fd5b505050506040513d601f19601f820116820180604052508101906131a09190613dbe565b90505b92915050565b600033905090565b6040518061014001604052806000801916815260200160008019168152602001600067ffffffffffffffff168152602001600067ffffffffffffffff168152602001600067ffffffffffffffff16815260200160008019168152602001600073ffffffffffffffffffffffffffffffffffffffff168152602001600073ffffffffffffffffffffffffffffffffffffffff168152602001600015158152602001606081525090565b6000604051905090565b600080fd5b600080fd5b6000819050919050565b6132808161326d565b811461328b57600080fd5b50565b60008135905061329d81613277565b92915050565b6000602082840312156132b9576132b8613263565b5b60006132c78482850161328e565b91505092915050565b60008115159050919050565b6132e5816132d0565b82525050565b600060208201905061330060008301846132dc565b92915050565b6000819050919050565b61331981613306565b811461332457600080fd5b50565b60008135905061333681613310565b92915050565b60006020828403121561335257613351613263565b5b600061336084828501613327565b91505092915050565b600073ffffffffffffffffffffffffffffffffffffffff82169050919050565b600061339482613369565b9050919050565b6133a481613389565b82525050565b60006020820190506133bf600083018461339b565b92915050565b600081519050919050565b600082825260208201905092915050565b60005b838110156133ff5780820151818401526020810190506133e4565b60008484015250505050565b6000601f19601f8301169050919050565b6000613427826133c5565b61343181856133d0565b93506134418185602086016133e1565b61344a8161340b565b840191505092915050565b6000602082019050818103600083015261346f818461341c565b905092915050565b61348081613389565b811461348b57600080fd5b50565b60008135905061349d81613477565b92915050565b6000602082840312156134b9576134b8613263565b5b60006134c78482850161348e565b91505092915050565b600080fd5b600080fd5b600080fd5b60008083601f8401126134f5576134f46134d0565b5b8235905067ffffffffffffffff811115613512576135116134d5565b5b60208301915083600182028301111561352e5761352d6134da565b5b9250929050565b6000806020838503121561354c5761354b613263565b5b600083013567ffffffffffffffff81111561356a57613569613268565b5b613576858286016134df565b92509250509250929050565b600081519050919050565b600082825260208201905092915050565b6000819050602082019050919050565b6135b781613389565b82525050565b60006135c983836135ae565b60208301905092915050565b6000602082019050919050565b60006135ed82613582565b6135f7818561358d565b93506136028361359e565b8060005b8381101561363357815161361a88826135bd565b9750613625836135d5565b925050600181019050613606565b5085935050505092915050565b6000602082019050818103600083015261365a81846135e2565b905092915050565b60008083601f840112613678576136776134d0565b5b8235905067ffffffffffffffff811115613695576136946134d5565b5b6020830191508360208202830111156136b1576136b06134da565b5b9250929050565b60008083601f8401126136ce576136cd6134d0565b5b8235905067ffffffffffffffff8111156136eb576136ea6134d5565b5b602083019150836020820283011115613707576137066134da565b5b9250929050565b6000806000806040858703121561372857613727613263565b5b600085013567ffffffffffffffff81111561374657613745613268565b5b61375287828801613662565b9450945050602085013567ffffffffffffffff81111561377557613774613268565b5b613781878288016136b8565b925092505092959194509250565b61379881613306565b82525050565b600067ffffffffffffffff82169050919050565b6137bb8161379e565b82525050565b6137ca816132d0565b82525050565b600081519050919050565b600082825260208201905092915050565b60006137f7826137d0565b61380181856137db565b93506138118185602086016133e1565b61381a8161340b565b840191505092915050565b60006101408301600083015161383e600086018261378f565b506020830151613851602086018261378f565b50604083015161386460408601826137b2565b50606083015161387760608601826137b2565b50608083015161388a60808601826137b2565b5060a083015161389d60a086018261378f565b5060c08301516138b060c08601826135ae565b5060e08301516138c360e08601826135ae565b506101008301516138d86101008601826137c1565b506101208301518482036101208601526138f282826137ec565b9150508091505092915050565b600060208201905081810360008301526139198184613825565b905092915050565b61392a816132d0565b811461393557600080fd5b50565b60008135905061394781613921565b92915050565b60006020828403121561396357613962613263565b5b600061397184828501613938565b91505092915050565b600061398582613389565b9050919050565b6139958161397a565b81146139a057600080fd5b50565b6000813590506139b28161398c565b92915050565b6000806000606084860312156139d1576139d0613263565b5b60006139df868287016139a3565b93505060206139f08682870161348e565b9250506040613a018682870161348e565b9150509250925092565b600080fd5b60006101408284031215613a2757613a26613a0b565b5b81905092915050565b600060208284031215613a4657613a45613263565b5b600082013567ffffffffffffffff811115613a6457613a63613268565b5b613a7084828501613a10565b91505092915050565b613a8281613306565b82525050565b6000602082019050613a9d6000830184613a79565b92915050565b600080fd5b7f4e487b7100000000000000000000000000000000000000000000000000000000600052604160045260246000fd5b613ae08261340b565b810181811067ffffffffffffffff82111715613aff57613afe613aa8565b5b80604052505050565b6000613b12613259565b9050613b1e8282613ad7565b919050565b600080fd5b600081519050613b3781613310565b92915050565b613b468161379e565b8114613b5157600080fd5b50565b600081519050613b6381613b3d565b92915050565b600081519050613b7881613477565b92915050565b600081519050613b8d81613921565b92915050565b600080fd5b600067ffffffffffffffff821115613bb357613bb2613aa8565b5b613bbc8261340b565b9050602081019050919050565b6000613bdc613bd784613b98565b613b08565b905082815260208101848484011115613bf857613bf7613b93565b5b613c038482856133e1565b509392505050565b600082601f830112613c2057613c1f6134d0565b5b8151613c30848260208601613bc9565b91505092915050565b60006101408284031215613c5057613c4f613aa3565b5b613c5b610140613b08565b90506000613c6b84828501613b28565b6000830152506020613c7f84828501613b28565b6020830152506040613c9384828501613b54565b6040830152506060613ca784828501613b54565b6060830152506080613cbb84828501613b54565b60808301525060a0613ccf84828501613b28565b60a08301525060c0613ce384828501613b69565b60c08301525060e0613cf784828501613b69565b60e083015250610100613d0c84828501613b7e565b6101008301525061012082015167ffffffffffffffff811115613d3257613d31613b23565b5b613d3e84828501613c0b565b6101208301525092915050565b600060208284031215613d6157613d60613263565b5b600082015167ffffffffffffffff811115613d7f57613d7e613268565b5b613d8b84828501613c39565b91505092915050565b613d9d8161326d565b82525050565b6000602082019050613db86000830184613d94565b92915050565b600060208284031215613dd457613dd3613263565b5b6000613de284828501613b7e565b91505092915050565b600081905092915050565b6000613e01826133c5565b613e0b8185613deb565b9350613e1b8185602086016133e1565b80840191505092915050565b7f2e00000000000000000000000000000000000000000000000000000000000000600082015250565b6000613e5d600183613deb565b9150613e6882613e27565b600182019050919050565b6000613e7f8286613df6565b9150613e8a82613e50565b9150613e968285613df6565b9150613ea182613e50565b9150613ead8284613df6565b9150819050949350505050565b82818337600083830152505050565b6000613ed58385613deb565b9350613ee2838584613eba565b82840190509392505050565b6000613efb828486613ec9565b91508190509392505050565b600067ffffffffffffffff821115613f2257613f21613aa8565b5b613f2b8261340b565b9050602081019050919050565b6000613f4b613f4684613f07565b613b08565b905082815260208101848484011115613f6757613f66613b93565b5b613f728482856133e1565b509392505050565b600082601f830112613f8f57613f8e6134d0565b5b8151613f9f848260208601613f38565b91505092915050565b600060a08284031215613fbe57613fbd613aa3565b5b613fc860a0613b08565b9050600082015167ffffffffffffffff811115613fe857613fe7613b23565b5b613ff484828501613f7a565b600083015250602082015167ffffffffffffffff81111561401857614017613b23565b5b61402484828501613f7a565b602083015250604082015167ffffffffffffffff81111561404857614047613b23565b5b61405484828501613f7a565b604083015250606082015167ffffffffffffffff81111561407857614077613b23565b5b61408484828501613f7a565b606083015250608082015167ffffffffffffffff8111156140a8576140a7613b23565b5b6140b484828501613f7a565b60808301525092915050565b60006140cb82613369565b9050919050565b6140db816140c0565b81146140e657600080fd5b50565b6000815190506140f8816140d2565b92915050565b600067ffffffffffffffff82111561411957614118613aa8565b5b602082029050602081019050919050565b600061413d614138846140fe565b613b08565b905080838252602082019050602084028301858111156141605761415f6134da565b5b835b8181101561418957806141758882613b69565b845260208401935050602081019050614162565b5050509392505050565b600082601f8301126141a8576141a76134d0565b5b81516141b884826020860161412a565b91505092915050565b600067ffffffffffffffff8211156141dc576141db613aa8565b5b602082029050602081019050919050565b60006040828403121561420357614202613aa3565b5b61420d6040613b08565b9050600082015167ffffffffffffffff81111561422d5761422c613b23565b5b61423984828501613f7a565b600083015250602082015167ffffffffffffffff81111561425d5761425c613b23565b5b61426984828501613f7a565b60208301525092915050565b6000614288614283846141c1565b613b08565b905080838252602082019050602084028301858111156142ab576142aa6134da565b5b835b818110156142f257805167ffffffffffffffff8111156142d0576142cf6134d0565b5b8086016142dd89826141ed565b855260208501945050506020810190506142ad565b5050509392505050565b600082601f830112614311576143106134d0565b5b8151614321848260208601614275565b91505092915050565b600067ffffffffffffffff82111561434557614344613aa8565b5b602082029050602081019050919050565b60006143696143648461432a565b613b08565b9050808382526020820190506020840283018581111561438c5761438b6134da565b5b835b818110156143d357805167ffffffffffffffff8111156143b1576143b06134d0565b5b8086016143be8982613f7a565b8552602085019450505060208101905061438e565b5050509392505050565b600082601f8301126143f2576143f16134d0565b5b8151614402848260208601614356565b91505092915050565b600080600080600080600080610100898b03121561442c5761442b613263565b5b600089015167ffffffffffffffff81111561444a57614449613268565b5b6144568b828c01613fa8565b98505060206144678b828c016140e9565b975050604089015167ffffffffffffffff81111561448857614487613268565b5b6144948b828c01614193565b965050606089015167ffffffffffffffff8111156144b5576144b4613268565b5b6144c18b828c01614193565b955050608089015167ffffffffffffffff8111156144e2576144e1613268565b5b6144ee8b828c01613f7a565b94505060a089015167ffffffffffffffff81111561450f5761450e613268565b5b61451b8b828c016142fc565b93505060c089015167ffffffffffffffff81111561453c5761453b613268565b5b6145488b828c016143dd565b92505060e06145598b828c01613b7e565b9150509295985092959890939650565b7f2c20000000000000000000000000000000000000000000000000000000000000815250565b600061459b8284613df6565b91506145a682614569565b60028201915081905092915050565b7f4e487b7100000000000000000000000000000000000000000000000000000000600052603260045260246000fd5b7f7b202274726169745f74797065223a2022000000000000000000000000000000815250565b7f222c202276616c7565223a202200000000000000000000000000000000000000815250565b7f227d000000000000000000000000000000000000000000000000000000000000815250565b60006146628286613df6565b915061466d826145e4565b60118201915061467d8285613df6565b91506146888261460a565b600d820191506146988284613df6565b91506146a382614630565b600282019150819050949350505050565b7f4e487b7100000000000000000000000000000000000000000000000000000000600052601160045260246000fd5b60006146ee8261326d565b91507fffffffffffffffffffffffffffffffffffffffffffffffffffffffffffffffff82036147205761471f6146b4565b5b600182019050919050565b7f2c207b202274726169745f74797065223a20227472616e7366657261626c652260008201527f2c202276616c7565223a202274727565227d0000000000000000000000000000602082015250565b6000614787603283613deb565b91506147928261472b565b603282019050919050565b60006147a98284613df6565b91506147b48261477a565b915081905092915050565b7f2c207b202274726169745f74797065223a20227472616e7366657261626c652260008201527f2c202276616c7565223a202266616c7365227d00000000000000000000000000602082015250565b600061481b603383613deb565b9150614826826147bf565b603382019050919050565b600061483d8284613df6565b91506148488261480e565b915081905092915050565b7f2200000000000000000000000000000000000000000000000000000000000000815250565b60006148858285613df6565b915061489082614853565b6001820191506148a08284613df6565b91506148ab82614853565b6001820191508190509392505050565b7f7b226e616d65223a220000000000000000000000000000000000000000000000600082015250565b60006148f1600983613deb565b91506148fc826148bb565b600982019050919050565b7f222c20226465736372697074696f6e223a220000000000000000000000000000600082015250565b600061493d601283613deb565b915061494882614907565b601282019050919050565b7f222c2022696d616765223a220000000000000000000000000000000000000000600082015250565b6000614989600c83613deb565b915061499482614953565b600c82019050919050565b7f222c202274616773223a205b0000000000000000000000000000000000000000600082015250565b60006149d5600c83613deb565b91506149e08261499f565b600c82019050919050565b7f5d2c202261747472696275746573223a5b000000000000000000000000000000600082015250565b6000614a21601183613deb565b9150614a2c826149eb565b601182019050919050565b7f5d7d000000000000000000000000000000000000000000000000000000000000600082015250565b6000614a6d600283613deb565b9150614a7882614a37565b600282019050919050565b6000614a8e826148e4565b9150614a9a8288613df6565b9150614aa582614930565b9150614ab18287613df6565b9150614abc8261497c565b9150614ac88286613df6565b9150614ad3826149c8565b9150614adf8285613df6565b9150614aea82614a14565b9150614af68284613df6565b9150614b0182614a60565b91508190509695505050505050565b7f646174613a6170706c69636174696f6e2f6a736f6e3b6261736536342c000000600082015250565b6000614b46601d83613deb565b9150614b5182614b10565b601d82019050919050565b6000614b6782614b39565b9150614b738284613df6565b915081905092915050565b600060208284031215614b9457614b93613263565b5b6000614ba284828501613b69565b91505092915050565b600080fd5b600080fd5b600080fd5b60008235600161014003833603038112614bd757614bd6614bab565b5b80830191505092915050565b7f496e697469616c697a61626c653a20636f6e747261637420697320616c72656160008201527f647920696e697469616c697a6564000000000000000000000000000000000000602082015250565b6000614c3f602e836133d0565b9150614c4a82614be3565b604082019050919050565b60006020820190508181036000830152614c6e81614c32565b9050919050565b6000819050919050565b600060ff82169050919050565b6000819050919050565b6000614cb1614cac614ca784614c75565b614c8c565b614c7f565b9050919050565b614cc181614c96565b82525050565b6000602082019050614cdc6000830184614cb8565b92915050565b60008083356001602003843603038112614cff57614cfe614bab565b5b80840192508235915067ffffffffffffffff821115614d2157614d20614bb0565b5b602083019250600182023603831315614d3d57614d3c614bb5565b5b509250929050565b6000614d58614d5384613f07565b613b08565b905082815260208101848484011115614d7457614d73613b93565b5b614d7f848285613eba565b509392505050565b600082601f830112614d9c57614d9b6134d0565b5b8135614dac848260208601614d45565b91505092915050565b600060a08284031215614dcb57614dca613aa3565b5b614dd560a0613b08565b9050600082013567ffffffffffffffff811115614df557614df4613b23565b5b614e0184828501614d87565b600083015250602082013567ffffffffffffffff811115614e2557614e24613b23565b5b614e3184828501614d87565b602083015250604082013567ffffffffffffffff811115614e5557614e54613b23565b5b614e6184828501614d87565b604083015250606082013567ffffffffffffffff811115614e8557614e84613b23565b5b614e9184828501614d87565b606083015250608082013567ffffffffffffffff811115614eb557614eb4613b23565b5b614ec184828501614d87565b60808301525092915050565b600081359050614edc816140d2565b92915050565b6000614ef5614ef0846140fe565b613b08565b90508083825260208201905060208402830185811115614f1857614f176134da565b5b835b81811015614f415780614f2d888261348e565b845260208401935050602081019050614f1a565b5050509392505050565b600082601f830112614f6057614f5f6134d0565b5b8135614f70848260208601614ee2565b91505092915050565b600060408284031215614f8f57614f8e613aa3565b5b614f996040613b08565b9050600082013567ffffffffffffffff811115614fb957614fb8613b23565b5b614fc584828501614d87565b600083015250602082013567ffffffffffffffff811115614fe957614fe8613b23565b5b614ff584828501614d87565b60208301525092915050565b600061501461500f846141c1565b613b08565b90508083825260208201905060208402830185811115615037576150366134da565b5b835b8181101561507e57803567ffffffffffffffff81111561505c5761505b6134d0565b5b8086016150698982614f79565b85526020850194505050602081019050615039565b5050509392505050565b600082601f83011261509d5761509c6134d0565b5b81356150ad848260208601615001565b91505092915050565b60006150c96150c48461432a565b613b08565b905080838252602082019050602084028301858111156150ec576150eb6134da565b5b835b8181101561513357803567ffffffffffffffff811115615111576151106134d0565b5b80860161511e8982614d87565b855260208501945050506020810190506150ee565b5050509392505050565b600082601f830112615152576151516134d0565b5b81356151628482602086016150b6565b91505092915050565b600080600080600080600080610100898b03121561518c5761518b613263565b5b600089013567ffffffffffffffff8111156151aa576151a9613268565b5b6151b68b828c01614db5565b98505060206151c78b828c01614ecd565b975050604089013567ffffffffffffffff8111156151e8576151e7613268565b5b6151f48b828c01614f4b565b965050606089013567ffffffffffffffff81111561521557615214613268565b5b6152218b828c01614f4b565b955050608089013567ffffffffffffffff81111561524257615241613268565b5b61524e8b828c01614d87565b94505060a089013567ffffffffffffffff81111561526f5761526e613268565b5b61527b8b828c01615088565b93505060c089013567ffffffffffffffff81111561529c5761529b613268565b5b6152a88b828c0161513d565b92505060e06152b98b828c01613938565b9150509295985092959890939650565b6000602082840312156152df576152de613263565b5b600082015167ffffffffffffffff8111156152fd576152fc613268565b5b61530984828501613f7a565b91505092915050565b7f4f776e61626c653a206e6577206f776e657220697320746865207a65726f206160008201527f6464726573730000000000000000000000000000000000000000000000000000602082015250565b600061536e6026836133d0565b915061537982615312565b604082019050919050565b6000602082019050818103600083015261539d81615361565b9050919050565b7f4e487b7100000000000000000000000000000000000000000000000000000000600052601260045260246000fd5b60006153de8261326d565b91506153e98361326d565b9250828201905080821115615401576154006146b4565b5b92915050565b60006154128261326d565b915061541d8361326d565b92508261542d5761542c6153a4565b5b828204905092915050565b60006154438261326d565b915061544e8361326d565b925082820261545c8161326d565b91508282048414831517615473576154726146b4565b5b5092915050565b7f4f776e61626c653a2063616c6c6572206973206e6f7420746865206f776e6572600082015250565b60006154b06020836133d0565b91506154bb8261547a565b602082019050919050565b600060208201905081810360008301526154df816154a3565b9050919050565b60006154f56020840184613327565b905092915050565b60008135905061550c81613b3d565b92915050565b600061552160208401846154fd565b905092915050565b6000615538602084018461348e565b905092915050565b600061554f6020840184613938565b905092915050565b600080fd5b600080fd5b600080fd5b6000808335600160200384360303811261558357615582615561565b5b83810192508235915060208301925067ffffffffffffffff8211156155ab576155aa615557565b5b6001820236038313156155c1576155c061555c565b5b509250929050565b60006155d583856137db565b93506155e2838584613eba565b6155eb8361340b565b840190509392505050565b6000610140830161560a60008401846154e6565b615617600086018261378f565b5061562560208401846154e6565b615632602086018261378f565b506156406040840184615512565b61564d60408601826137b2565b5061565b6060840184615512565b61566860608601826137b2565b506156766080840184615512565b61568360808601826137b2565b5061569160a08401846154e6565b61569e60a086018261378f565b506156ac60c0840184615529565b6156b960c08601826135ae565b506156c760e0840184615529565b6156d460e08601826135ae565b506156e3610100840184615540565b6156f16101008601826137c1565b50615700610120840184615566565b8583036101208701526157148382846155c9565b925050508091505092915050565b6000606082019050818103600083015261573c81866155f6565b905061574b6020830185613d94565b615758604083018461339b565b949350505050565b600061576c8284613df6565b915081905092915050565b7f496e697469616c697a61626c653a20636f6e7472616374206973206e6f74206960008201527f6e697469616c697a696e67000000000000000000000000000000000000000000602082015250565b60006157d3602b836133d0565b91506157de82615777565b604082019050919050565b60006020820190508181036000830152615802816157c6565b9050919050565b6000602082019050818103600083015261582381846155f6565b905092915050565b60006040820190508181036000830152615845818561341c565b9050615854602083018461339b565b9392505050565b60008151905061586a81613277565b92915050565b60006020828403121561588657615885613263565b5b60006158948482850161585b565b91505092915050565b60006040820190506158b26000830185613a79565b6158bf602083018461339b565b9392505050565b50565b60006158d66000836133d0565b91506158e1826158c6565b600082019050919050565b6000606082019050615901600083018561339b565b61590e6020830184613d94565b818103604083015261591f816158c9565b90509392505050565b7f455243313136373a2063726561746532206661696c6564000000000000000000600082015250565b600061595e6017836133d0565b915061596982615928565b602082019050919050565b6000602082019050818103600083015261598d81615951565b905091905056fe4142434445464748494a4b4c4d4e4f505152535455565758595a6162636465666768696a6b6c6d6e6f707172737475767778797a303132333435363738392b2fa2646970667358221220893c172702b407bfd47d3eb5fdf018b71b560fc7b66c2696a07e3dc64d6e2cdf64736f6c63430008150033",
  "linkReferences": {},
  "deployedLinkReferences": {}
}