{
  "_format": "hh-sol-artifact-1",
  "contractName": "TR8Transporter",
  "sourceName": "contracts/TR8Transporter.sol",
  "abi": [
    {
      "inputs": [],
      "stateMutability": "nonpayable",
      "type": "constructor"
    },
    {
      "inputs": [],
      "name": "NotOwner",
      "type": "error"
    },
    {
      "anonymous": false,
      "inputs": [
        {
          "indexed": false,
          "internalType": "uint8",
          "name": "version",
          "type": "uint8"
        }
      ],
      "name": "Initialized",
      "type": "event"
    },
    {
      "anonymous": false,
      "inputs": [
        {
          "indexed": false,
          "internalType": "uint16",
          "name": "_srcChainId",
          "type": "uint16"
        },
        {
          "indexed": false,
          "internalType": "bytes",
          "name": "_srcAddress",
          "type": "bytes"
        },
        {
          "indexed": false,
          "internalType": "uint64",
          "name": "_nonce",
          "type": "uint64"
        },
        {
          "indexed": false,
          "internalType": "bytes",
          "name": "_payload",
          "type": "bytes"
        }
      ],
      "name": "MessageFailed",
      "type": "event"
    },
    {
      "anonymous": false,
      "inputs": [
        {
          "indexed": true,
          "internalType": "address",
          "name": "previousOwner",
          "type": "address"
        },
        {
          "indexed": true,
          "internalType": "address",
          "name": "newOwner",
          "type": "address"
        }
      ],
      "name": "OwnershipTransferred",
      "type": "event"
    },
    {
      "anonymous": false,
      "inputs": [
        {
          "indexed": false,
          "internalType": "uint16",
          "name": "_dstChainId",
          "type": "uint16"
        },
        {
          "indexed": false,
          "internalType": "uint256",
          "name": "_type",
          "type": "uint256"
        },
        {
          "indexed": false,
          "internalType": "uint256",
          "name": "_dstGasAmount",
          "type": "uint256"
        }
      ],
      "name": "SetMinDstGasLookup",
      "type": "event"
    },
    {
      "anonymous": false,
      "inputs": [
        {
          "indexed": false,
          "internalType": "uint16",
          "name": "_srcChainId",
          "type": "uint16"
        },
        {
          "indexed": false,
          "internalType": "bytes",
          "name": "_srcAddress",
          "type": "bytes"
        }
      ],
      "name": "SetTrustedRemote",
      "type": "event"
    },
    {
      "anonymous": false,
      "inputs": [
        {
          "indexed": false,
          "internalType": "uint256",
          "name": "tokenId",
          "type": "uint256"
        },
        {
          "indexed": true,
          "internalType": "address",
          "name": "nftAddress",
          "type": "address"
        },
        {
          "indexed": true,
          "internalType": "uint16",
          "name": "chainId",
          "type": "uint16"
        }
      ],
      "name": "TR8Departed",
      "type": "event"
    },
    {
      "inputs": [
        {
          "internalType": "uint256",
          "name": "tokenId",
          "type": "uint256"
        },
        {
          "internalType": "uint16",
          "name": "_dstChainId",
          "type": "uint16"
        },
        {
          "internalType": "bytes",
          "name": "_adapterParams",
          "type": "bytes"
        }
      ],
      "name": "evmEstimateSendFee",
      "outputs": [
        {
          "internalType": "uint256",
          "name": "nativeFee",
          "type": "uint256"
        },
        {
          "internalType": "uint256",
          "name": "zroFee",
          "type": "uint256"
        }
      ],
      "stateMutability": "view",
      "type": "function"
    },
    {
      "inputs": [
        {
          "internalType": "uint16",
          "name": "",
          "type": "uint16"
        },
        {
          "internalType": "bytes",
          "name": "",
          "type": "bytes"
        },
        {
          "internalType": "uint64",
          "name": "",
          "type": "uint64"
        }
      ],
      "name": "failedMessages",
      "outputs": [
        {
          "internalType": "bytes32",
          "name": "",
          "type": "bytes32"
        }
      ],
      "stateMutability": "view",
      "type": "function"
    },
    {
      "inputs": [
        {
          "internalType": "uint16",
          "name": "_srcChainId",
          "type": "uint16"
        },
        {
          "internalType": "bytes",
          "name": "_srcAddress",
          "type": "bytes"
        }
      ],
      "name": "forceResumeReceive",
      "outputs": [],
      "stateMutability": "nonpayable",
      "type": "function"
    },
    {
      "inputs": [
        {
          "internalType": "uint16",
          "name": "_version",
          "type": "uint16"
        },
        {
          "internalType": "uint16",
          "name": "_chainId",
          "type": "uint16"
        },
        {
          "internalType": "address",
          "name": "",
          "type": "address"
        },
        {
          "internalType": "uint256",
          "name": "_configType",
          "type": "uint256"
        }
      ],
      "name": "getConfig",
      "outputs": [
        {
          "internalType": "bytes",
          "name": "",
          "type": "bytes"
        }
      ],
      "stateMutability": "view",
      "type": "function"
    },
    {
      "inputs": [
        {
          "internalType": "bytes",
          "name": "_adapterParams",
          "type": "bytes"
        }
      ],
      "name": "getGasLimit",
      "outputs": [
        {
          "internalType": "uint256",
          "name": "gasLimit",
          "type": "uint256"
        }
      ],
      "stateMutability": "pure",
      "type": "function"
    },
    {
      "inputs": [
        {
          "internalType": "address",
          "name": "_tr8",
          "type": "address"
        },
        {
          "internalType": "address",
          "name": "_lzEndpoint",
          "type": "address"
        },
        {
          "internalType": "uint16[]",
          "name": "remoteChainIds",
          "type": "uint16[]"
        }
      ],
      "name": "initialize",
      "outputs": [],
      "stateMutability": "nonpayable",
      "type": "function"
    },
    {
      "inputs": [
        {
          "internalType": "address",
          "name": "forwarder",
          "type": "address"
        }
      ],
      "name": "isTrustedForwarder",
      "outputs": [
        {
          "internalType": "bool",
          "name": "",
          "type": "bool"
        }
      ],
      "stateMutability": "view",
      "type": "function"
    },
    {
      "inputs": [
        {
          "internalType": "uint16",
          "name": "_srcChainId",
          "type": "uint16"
        },
        {
          "internalType": "bytes",
          "name": "_srcAddress",
          "type": "bytes"
        }
      ],
      "name": "isTrustedRemote",
      "outputs": [
        {
          "internalType": "bool",
          "name": "",
          "type": "bool"
        }
      ],
      "stateMutability": "view",
      "type": "function"
    },
    {
      "inputs": [],
      "name": "lzEndpoint",
      "outputs": [
        {
          "internalType": "contract ILayerZeroEndpointUpgradeable",
          "name": "",
          "type": "address"
        }
      ],
      "stateMutability": "view",
      "type": "function"
    },
    {
      "inputs": [
        {
          "internalType": "uint16",
          "name": "_srcChainId",
          "type": "uint16"
        },
        {
          "internalType": "bytes",
          "name": "_srcAddress",
          "type": "bytes"
        },
        {
          "internalType": "uint64",
          "name": "_nonce",
          "type": "uint64"
        },
        {
          "internalType": "bytes",
          "name": "_payload",
          "type": "bytes"
        }
      ],
      "name": "lzReceive",
      "outputs": [],
      "stateMutability": "nonpayable",
      "type": "function"
    },
    {
      "inputs": [
        {
          "internalType": "uint16",
          "name": "",
          "type": "uint16"
        },
        {
          "internalType": "uint256",
          "name": "",
          "type": "uint256"
        }
      ],
      "name": "minDstGasLookup",
      "outputs": [
        {
          "internalType": "uint256",
          "name": "",
          "type": "uint256"
        }
      ],
      "stateMutability": "view",
      "type": "function"
    },
    {
      "inputs": [
        {
          "internalType": "uint16",
          "name": "_srcChainId",
          "type": "uint16"
        },
        {
          "internalType": "bytes",
          "name": "_srcAddress",
          "type": "bytes"
        },
        {
          "internalType": "uint64",
          "name": "_nonce",
          "type": "uint64"
        },
        {
          "internalType": "bytes",
          "name": "_payload",
          "type": "bytes"
        }
      ],
      "name": "nonblockingLzReceive",
      "outputs": [],
      "stateMutability": "nonpayable",
      "type": "function"
    },
    {
      "inputs": [],
      "name": "owner",
      "outputs": [
        {
          "internalType": "address",
          "name": "",
          "type": "address"
        }
      ],
      "stateMutability": "view",
      "type": "function"
    },
    {
      "inputs": [],
      "name": "renounceOwnership",
      "outputs": [],
      "stateMutability": "nonpayable",
      "type": "function"
    },
    {
      "inputs": [
        {
          "internalType": "uint16",
          "name": "_srcChainId",
          "type": "uint16"
        },
        {
          "internalType": "bytes",
          "name": "_srcAddress",
          "type": "bytes"
        },
        {
          "internalType": "uint64",
          "name": "_nonce",
          "type": "uint64"
        },
        {
          "internalType": "bytes",
          "name": "_payload",
          "type": "bytes"
        }
      ],
      "name": "retryMessage",
      "outputs": [],
      "stateMutability": "payable",
      "type": "function"
    },
    {
      "inputs": [
        {
          "internalType": "uint256",
          "name": "tokenId",
          "type": "uint256"
        },
        {
          "internalType": "uint16",
          "name": "_dstChainId",
          "type": "uint16"
        },
        {
          "internalType": "bytes",
          "name": "_adapterParams",
          "type": "bytes"
        }
      ],
      "name": "send",
      "outputs": [],
      "stateMutability": "payable",
      "type": "function"
    },
    {
      "inputs": [
        {
          "internalType": "uint16",
          "name": "_version",
          "type": "uint16"
        },
        {
          "internalType": "uint16",
          "name": "_chainId",
          "type": "uint16"
        },
        {
          "internalType": "uint256",
          "name": "_configType",
          "type": "uint256"
        },
        {
          "internalType": "bytes",
          "name": "_config",
          "type": "bytes"
        }
      ],
      "name": "setConfig",
      "outputs": [],
      "stateMutability": "nonpayable",
      "type": "function"
    },
    {
      "inputs": [
        {
          "internalType": "uint16",
          "name": "_dstChainId",
          "type": "uint16"
        },
        {
          "internalType": "uint256",
          "name": "_type",
          "type": "uint256"
        },
        {
          "internalType": "uint256",
          "name": "_dstGasAmount",
          "type": "uint256"
        }
      ],
      "name": "setMinDstGasLookup",
      "outputs": [],
      "stateMutability": "nonpayable",
      "type": "function"
    },
    {
      "inputs": [
        {
          "internalType": "uint16",
          "name": "_version",
          "type": "uint16"
        }
      ],
      "name": "setReceiveVersion",
      "outputs": [],
      "stateMutability": "nonpayable",
      "type": "function"
    },
    {
      "inputs": [
        {
          "internalType": "uint16",
          "name": "_version",
          "type": "uint16"
        }
      ],
      "name": "setSendVersion",
      "outputs": [],
      "stateMutability": "nonpayable",
      "type": "function"
    },
    {
      "inputs": [
        {
          "internalType": "uint16",
          "name": "_srcChainId",
          "type": "uint16"
        },
        {
          "internalType": "bytes",
          "name": "_srcAddress",
          "type": "bytes"
        }
      ],
      "name": "setTrustedRemote",
      "outputs": [],
      "stateMutability": "nonpayable",
      "type": "function"
    },
    {
      "inputs": [],
      "name": "tr8",
      "outputs": [
        {
          "internalType": "contract ITR8",
          "name": "",
          "type": "address"
        }
      ],
      "stateMutability": "view",
      "type": "function"
    },
    {
      "inputs": [
        {
          "internalType": "address",
          "name": "newOwner",
          "type": "address"
        }
      ],
      "name": "transferOwnership",
      "outputs": [],
      "stateMutability": "nonpayable",
      "type": "function"
    },
    {
      "inputs": [
        {
          "internalType": "uint16",
          "name": "",
          "type": "uint16"
        }
      ],
      "name": "trustedRemoteLookup",
      "outputs": [
        {
          "internalType": "bytes",
          "name": "",
          "type": "bytes"
        }
      ],
      "stateMutability": "view",
      "type": "function"
    }
  ],
  "bytecode": "0x60a060405234801561001057600080fd5b5073b539068872230f20456cf38ec52ef2f91af4ae498073ffffffffffffffffffffffffffffffffffffffff1660808173ffffffffffffffffffffffffffffffffffffffff1681525050506080516141a26100766000396000610e3a01526141a26000f3fe60806040526004361061014a5760003560e01c80637533d788116100b6578063cbed8b9c1161006f578063cbed8b9c14610490578063d1deba1f146104b9578063eb8d72b7146104d5578063f2fde38b146104fe578063f5ecbdbc14610527578063f99abaa4146105645761014a565b80637533d7881461036e5780638da5cb5b146103ab57806392af93b8146103d65780639b57db5f146103ff578063a2ca14ec14610428578063b353aaa7146104655761014a565b80633d8b38f6116101085780633d8b38f61461024e57806342d65a8d1461028b578063572b6c05146102b45780635b8c41e6146102f157806366ad5c8a1461032e578063715018a6146103575761014a565b80621d35671461014f578063078108671461017857806307e0db17146101b557806310ddb137146101de578063351f3519146102075780633b8a9d4f14610232575b600080fd5b34801561015b57600080fd5b506101766004803603810190610171919061235c565b6105a2565b005b34801561018457600080fd5b5061019f600480360381019061019a9190612431565b610751565b6040516101ac9190612480565b60405180910390f35b3480156101c157600080fd5b506101dc60048036038101906101d7919061249b565b610776565b005b3480156101ea57600080fd5b506102056004803603810190610200919061249b565b61080e565b005b34801561021357600080fd5b5061021c6108a6565b6040516102299190612547565b60405180910390f35b61024c60048036038101906102479190612562565b6108cc565b005b34801561025a57600080fd5b5061027560048036038101906102709190612631565b610cc4565b60405161028291906126ac565b60405180910390f35b34801561029757600080fd5b506102b260048036038101906102ad9190612631565b610d98565b005b3480156102c057600080fd5b506102db60048036038101906102d69190612705565b610e36565b6040516102e891906126ac565b60405180910390f35b3480156102fd57600080fd5b5061031860048036038101906103139190612732565b610e8e565b60405161032591906127ba565b60405180910390f35b34801561033a57600080fd5b506103556004803603810190610350919061235c565b610ed6565b005b34801561036357600080fd5b5061036c610f5d565b005b34801561037a57600080fd5b506103956004803603810190610390919061249b565b610f71565b6040516103a29190612854565b60405180910390f35b3480156103b757600080fd5b506103c0611011565b6040516103cd9190612885565b60405180910390f35b3480156103e257600080fd5b506103fd60048036038101906103f89190612963565b61103b565b005b34801561040b57600080fd5b50610426600480360381019061042191906129d2565b61124b565b005b34801561043457600080fd5b5061044f600480360381019061044a9190612a25565b611307565b60405161045c9190612480565b60405180910390f35b34801561047157600080fd5b5061047a611315565b6040516104879190612a8f565b60405180910390f35b34801561049c57600080fd5b506104b760048036038101906104b29190612aaa565b61133b565b005b6104d360048036038101906104ce919061235c565b6113df565b005b3480156104e157600080fd5b506104fc60048036038101906104f79190612631565b611545565b005b34801561050a57600080fd5b5061052560048036038101906105209190612705565b6115b8565b005b34801561053357600080fd5b5061054e60048036038101906105499190612b32565b61163b565b60405161055b9190612854565b60405180910390f35b34801561057057600080fd5b5061058b60048036038101906105869190612562565b6116ee565b604051610599929190612b99565b60405180910390f35b606560009054906101000a900473ffffffffffffffffffffffffffffffffffffffff1673ffffffffffffffffffffffffffffffffffffffff166105e3611919565b73ffffffffffffffffffffffffffffffffffffffff1614610639576040517f08c379a000000000000000000000000000000000000000000000000000000000815260040161063090612c1f565b60405180910390fd5b6000606660008661ffff1661ffff168152602001908152602001600020805461066190612c6e565b80601f016020809104026020016040519081016040528092919081815260200182805461068d90612c6e565b80156106da5780601f106106af576101008083540402835291602001916106da565b820191906000526020600020905b8154815290600101906020018083116106bd57829003601f168201915b50505050509050805184511480156106ff575080805190602001208480519060200120145b61073e576040517f08c379a000000000000000000000000000000000000000000000000000000000815260040161073590612d11565b60405180910390fd5b61074a85858585611928565b5050505050565b6067602052816000526040600020602052806000526040600020600091509150505481565b61077e611a47565b606560009054906101000a900473ffffffffffffffffffffffffffffffffffffffff1673ffffffffffffffffffffffffffffffffffffffff166307e0db17826040518263ffffffff1660e01b81526004016107d99190612d40565b600060405180830381600087803b1580156107f357600080fd5b505af1158015610807573d6000803e3d6000fd5b5050505050565b610816611a47565b606560009054906101000a900473ffffffffffffffffffffffffffffffffffffffff1673ffffffffffffffffffffffffffffffffffffffff166310ddb137826040518263ffffffff1660e01b81526004016108719190612d40565b600060405180830381600087803b15801561088b57600080fd5b505af115801561089f573d6000803e3d6000fd5b5050505050565b60ff60009054906101000a900473ffffffffffffffffffffffffffffffffffffffff1681565b60ff60009054906101000a900473ffffffffffffffffffffffffffffffffffffffff1673ffffffffffffffffffffffffffffffffffffffff16636352211e846040518263ffffffff1660e01b81526004016109279190612480565b602060405180830381865afa158015610944573d6000803e3d6000fd5b505050506040513d601f19601f820116820180604052508101906109689190612d70565b73ffffffffffffffffffffffffffffffffffffffff16610986611919565b73ffffffffffffffffffffffffffffffffffffffff16146109d3576040517f30cd747100000000000000000000000000000000000000000000000000000000815260040160405180910390fd5b600060ff60009054906101000a900473ffffffffffffffffffffffffffffffffffffffff1673ffffffffffffffffffffffffffffffffffffffff1663a8971c5d856040518263ffffffff1660e01b8152600401610a309190612480565b600060405180830381865afa158015610a4d573d6000803e3d6000fd5b505050506040513d6000823e3d601f19601f82011682018060405250810190610a769190612f96565b90506000610a82611919565b8560ff60009054906101000a900473ffffffffffffffffffffffffffffffffffffffff1673ffffffffffffffffffffffffffffffffffffffff166361399552886040518263ffffffff1660e01b8152600401610ade9190612480565b600060405180830381865afa158015610afb573d6000803e3d6000fd5b505050506040513d6000823e3d601f19601f82011682018060405250810190610b249190613080565b84604051602001610b38949392919061326d565b6040516020818303038152906040529050610b5e8482610b56611919565b600087611ac5565b600060ff60009054906101000a900473ffffffffffffffffffffffffffffffffffffffff1673ffffffffffffffffffffffffffffffffffffffff16633926f348876040518263ffffffff1660e01b8152600401610bbb9190612480565b602060405180830381865afa158015610bd8573d6000803e3d6000fd5b505050506040513d601f19601f82011682018060405250810190610bfc9190612d70565b90508073ffffffffffffffffffffffffffffffffffffffff1663765f1e86876040518263ffffffff1660e01b8152600401610c379190612480565b600060405180830381600087803b158015610c5157600080fd5b505af1158015610c65573d6000803e3d6000fd5b505050508461ffff168173ffffffffffffffffffffffffffffffffffffffff167f7dcbdcff5a26098f13b347cc9e3c968df5fa523c45f4305e4bcc09e21d7863b988604051610cb49190612480565b60405180910390a3505050505050565b600080606660008661ffff1661ffff1681526020019081526020016000208054610ced90612c6e565b80601f0160208091040260200160405190810160405280929190818152602001828054610d1990612c6e565b8015610d665780601f10610d3b57610100808354040283529160200191610d66565b820191906000526020600020905b815481529060010190602001808311610d4957829003601f168201915b505050505090508383604051610d7d9291906132f0565b60405180910390208180519060200120149150509392505050565b610da0611a47565b606560009054906101000a900473ffffffffffffffffffffffffffffffffffffffff1673ffffffffffffffffffffffffffffffffffffffff166342d65a8d8484846040518463ffffffff1660e01b8152600401610dff93929190613336565b600060405180830381600087803b158015610e1957600080fd5b505af1158015610e2d573d6000803e3d6000fd5b50505050505050565b60007f000000000000000000000000000000000000000000000000000000000000000073ffffffffffffffffffffffffffffffffffffffff168273ffffffffffffffffffffffffffffffffffffffff16149050919050565b609a6020528260005260406000208280516020810182018051848252602083016020850120818352809550505050505060205280600052604060002060009250925050505481565b3073ffffffffffffffffffffffffffffffffffffffff16610ef5611919565b73ffffffffffffffffffffffffffffffffffffffff1614610f4b576040517f08c379a0000000000000000000000000000000000000000000000000000000008152600401610f42906133da565b60405180910390fd5b610f5784848484611c51565b50505050565b610f65611a47565b610f6f6000611f0b565b565b60666020528060005260406000206000915090508054610f9090612c6e565b80601f0160208091040260200160405190810160405280929190818152602001828054610fbc90612c6e565b80156110095780601f10610fde57610100808354040283529160200191611009565b820191906000526020600020905b815481529060010190602001808311610fec57829003601f168201915b505050505081565b6000603360009054906101000a900473ffffffffffffffffffffffffffffffffffffffff16905090565b60008060019054906101000a900460ff1615905080801561106c5750600160008054906101000a900460ff1660ff16105b80611099575061107b30611fd1565b1580156110985750600160008054906101000a900460ff1660ff16145b5b6110d8576040517f08c379a00000000000000000000000000000000000000000000000000000000081526004016110cf9061346c565b60405180910390fd5b60016000806101000a81548160ff021916908360ff1602179055508015611115576001600060016101000a81548160ff0219169083151502179055505b61111e83611ff4565b8360ff60006101000a81548173ffffffffffffffffffffffffffffffffffffffff021916908373ffffffffffffffffffffffffffffffffffffffff16021790555061116833611f0b565b60005b82518110156111eb5730306040516020016111879291906134d4565b604051602081830303815290604052606660008584815181106111ad576111ac613500565b5b602002602001015161ffff1661ffff16815260200190815260200160002090816111d791906136d1565b5080806111e3906137d2565b91505061116b565b5080156112455760008060016101000a81548160ff0219169083151502179055507f7f26b83ff96e1f2b6a682f133852f6798a09c465da95921460cefb3847402498600160405161123c9190613862565b60405180910390a15b50505050565b611253611a47565b60008111611296576040517f08c379a000000000000000000000000000000000000000000000000000000000815260040161128d906138c9565b60405180910390fd5b80606760008561ffff1661ffff1681526020019081526020016000206000848152602001908152602001600020819055507f15ceea62cfa597b29eb911525932c57500d97da953485d24260680ae56903b688383836040516112fa939291906138e9565b60405180910390a1505050565b600060228201519050919050565b606560009054906101000a900473ffffffffffffffffffffffffffffffffffffffff1681565b611343611a47565b606560009054906101000a900473ffffffffffffffffffffffffffffffffffffffff1673ffffffffffffffffffffffffffffffffffffffff1663cbed8b9c86868686866040518663ffffffff1660e01b81526004016113a6959493929190613920565b600060405180830381600087803b1580156113c057600080fd5b505af11580156113d4573d6000803e3d6000fd5b505050505050505050565b6000609a60008661ffff1661ffff1681526020019081526020016000208460405161140a919061399f565b908152602001604051809103902060008467ffffffffffffffff1667ffffffffffffffff1681526020019081526020016000205490506000801b8103611485576040517f08c379a000000000000000000000000000000000000000000000000000000000815260040161147c90613a28565b60405180910390fd5b808280519060200120146114ce576040517f08c379a00000000000000000000000000000000000000000000000000000000081526004016114c590613aba565b60405180910390fd5b6000801b609a60008761ffff1661ffff168152602001908152602001600020856040516114fb919061399f565b908152602001604051809103902060008567ffffffffffffffff1667ffffffffffffffff1681526020019081526020016000208190555061153e85858585611c51565b5050505050565b61154d611a47565b8181606660008661ffff1661ffff1681526020019081526020016000209182611577929190613ae5565b507ffa41487ad5d6728f0b19276fa1eddc16558578f5109fc39d2dc33c3230470dab8383836040516115ab93929190613336565b60405180910390a1505050565b6115c0611a47565b600073ffffffffffffffffffffffffffffffffffffffff168173ffffffffffffffffffffffffffffffffffffffff160361162f576040517f08c379a000000000000000000000000000000000000000000000000000000000815260040161162690613c27565b60405180910390fd5b61163881611f0b565b50565b6060606560009054906101000a900473ffffffffffffffffffffffffffffffffffffffff1673ffffffffffffffffffffffffffffffffffffffff1663f5ecbdbc868630866040518563ffffffff1660e01b815260040161169e9493929190613c47565b600060405180830381865afa1580156116bb573d6000803e3d6000fd5b505050506040513d6000823e3d601f19601f820116820180604052508101906116e49190613c8c565b9050949350505050565b600080600060ff60009054906101000a900473ffffffffffffffffffffffffffffffffffffffff1673ffffffffffffffffffffffffffffffffffffffff1663a8971c5d876040518263ffffffff1660e01b815260040161174e9190612480565b600060405180830381865afa15801561176b573d6000803e3d6000fd5b505050506040513d6000823e3d601f19601f820116820180604052508101906117949190612f96565b905060006117a0611919565b8760ff60009054906101000a900473ffffffffffffffffffffffffffffffffffffffff1673ffffffffffffffffffffffffffffffffffffffff1663613995528a6040518263ffffffff1660e01b81526004016117fc9190612480565b600060405180830381865afa158015611819573d6000803e3d6000fd5b505050506040513d6000823e3d601f19601f820116820180604052508101906118429190613080565b84604051602001611856949392919061326d565b6040516020818303038152906040529050606560009054906101000a900473ffffffffffffffffffffffffffffffffffffffff1673ffffffffffffffffffffffffffffffffffffffff166340a7bb1087308460008a6040518663ffffffff1660e01b81526004016118cb959493929190613cd5565b6040805180830381865afa1580156118e7573d6000803e3d6000fd5b505050506040513d601f19601f8201168201806040525081019061190b9190613d4b565b935093505050935093915050565b600061192361204f565b905090565b3073ffffffffffffffffffffffffffffffffffffffff166366ad5c8a858585856040518563ffffffff1660e01b81526004016119679493929190613d9a565b600060405180830381600087803b15801561198157600080fd5b505af1925050508015611992575060015b611a40578080519060200120609a60008661ffff1661ffff168152602001908152602001600020846040516119c7919061399f565b908152602001604051809103902060008467ffffffffffffffff1667ffffffffffffffff168152602001908152602001600020819055507fe6f254030bcb01ffd20558175c13fcaed6d1520be7becee4c961b65f79243b0d84848484604051611a339493929190613d9a565b60405180910390a1611a41565b5b50505050565b611a4f611919565b73ffffffffffffffffffffffffffffffffffffffff16611a6d611011565b73ffffffffffffffffffffffffffffffffffffffff1614611ac3576040517f08c379a0000000000000000000000000000000000000000000000000000000008152600401611aba90613e39565b60405180910390fd5b565b6000606660008761ffff1661ffff1681526020019081526020016000208054611aed90612c6e565b80601f0160208091040260200160405190810160405280929190818152602001828054611b1990612c6e565b8015611b665780601f10611b3b57610100808354040283529160200191611b66565b820191906000526020600020905b815481529060010190602001808311611b4957829003601f168201915b505050505090506000815103611bb1576040517f08c379a0000000000000000000000000000000000000000000000000000000008152600401611ba890613ecb565b60405180910390fd5b606560009054906101000a900473ffffffffffffffffffffffffffffffffffffffff1673ffffffffffffffffffffffffffffffffffffffff1663c5803100348884898989896040518863ffffffff1660e01b8152600401611c1796959493929190613f0c565b6000604051808303818588803b158015611c3057600080fd5b505af1158015611c44573d6000803e3d6000fd5b5050505050505050505050565b60008060008084806020019051810190611c6b9190613fae565b9350935093509350600060ff60009054906101000a900473ffffffffffffffffffffffffffffffffffffffff1673ffffffffffffffffffffffffffffffffffffffff16633926f348856040518263ffffffff1660e01b8152600401611cd09190612480565b602060405180830381865afa158015611ced573d6000803e3d6000fd5b505050506040513d601f19601f82011682018060405250810190611d119190612d70565b9050600073ffffffffffffffffffffffffffffffffffffffff168173ffffffffffffffffffffffffffffffffffffffff1603611de85760ff60009054906101000a900473ffffffffffffffffffffffffffffffffffffffff1673ffffffffffffffffffffffffffffffffffffffff1663c3237c12836040518263ffffffff1660e01b8152600401611da2919061404d565b6020604051808303816000875af1158015611dc1573d6000803e3d6000fd5b505050506040513d601f19601f82011682018060405250810190611de59190612d70565b90505b60ff60009054906101000a900473ffffffffffffffffffffffffffffffffffffffff1673ffffffffffffffffffffffffffffffffffffffff16637468a52b6040518163ffffffff1660e01b8152600401602060405180830381865afa158015611e55573d6000803e3d6000fd5b505050506040513d601f19601f82011682018060405250810190611e79919061406f565b15611e91576040518060200160405280600081525092505b8073ffffffffffffffffffffffffffffffffffffffff16634ca64fe28686866040518463ffffffff1660e01b8152600401611ece9392919061409c565b600060405180830381600087803b158015611ee857600080fd5b505af1158015611efc573d6000803e3d6000fd5b50505050505050505050505050565b6000603360009054906101000a900473ffffffffffffffffffffffffffffffffffffffff16905081603360006101000a81548173ffffffffffffffffffffffffffffffffffffffff021916908373ffffffffffffffffffffffffffffffffffffffff1602179055508173ffffffffffffffffffffffffffffffffffffffff168173ffffffffffffffffffffffffffffffffffffffff167f8be0079c531659141344cd1fd0a4f28419497f9722a3daafe3b4186f6b6457e060405160405180910390a35050565b6000808273ffffffffffffffffffffffffffffffffffffffff163b119050919050565b600060019054906101000a900460ff16612043576040517f08c379a000000000000000000000000000000000000000000000000000000000815260040161203a9061414c565b60405180910390fd5b61204c81612092565b50565b600061205a33610e36565b801561206b57506014600036905010155b1561207f57601436033560601c905061208e565b6120876120ed565b905061208f565b5b90565b600060019054906101000a900460ff166120e1576040517f08c379a00000000000000000000000000000000000000000000000000000000081526004016120d89061414c565b60405180910390fd5b6120ea816120f5565b50565b600033905090565b600060019054906101000a900460ff16612144576040517f08c379a000000000000000000000000000000000000000000000000000000000815260040161213b9061414c565b60405180910390fd5b80606560006101000a81548173ffffffffffffffffffffffffffffffffffffffff021916908373ffffffffffffffffffffffffffffffffffffffff16021790555050565b6000604051905090565b600080fd5b600080fd5b600061ffff82169050919050565b6121b38161219c565b81146121be57600080fd5b50565b6000813590506121d0816121aa565b92915050565b600080fd5b600080fd5b6000601f19601f8301169050919050565b7f4e487b7100000000000000000000000000000000000000000000000000000000600052604160045260246000fd5b612229826121e0565b810181811067ffffffffffffffff82111715612248576122476121f1565b5b80604052505050565b600061225b612188565b90506122678282612220565b919050565b600067ffffffffffffffff821115612287576122866121f1565b5b612290826121e0565b9050602081019050919050565b82818337600083830152505050565b60006122bf6122ba8461226c565b612251565b9050828152602081018484840111156122db576122da6121db565b5b6122e684828561229d565b509392505050565b600082601f830112612303576123026121d6565b5b81356123138482602086016122ac565b91505092915050565b600067ffffffffffffffff82169050919050565b6123398161231c565b811461234457600080fd5b50565b60008135905061235681612330565b92915050565b6000806000806080858703121561237657612375612192565b5b6000612384878288016121c1565b945050602085013567ffffffffffffffff8111156123a5576123a4612197565b5b6123b1878288016122ee565b93505060406123c287828801612347565b925050606085013567ffffffffffffffff8111156123e3576123e2612197565b5b6123ef878288016122ee565b91505092959194509250565b6000819050919050565b61240e816123fb565b811461241957600080fd5b50565b60008135905061242b81612405565b92915050565b6000806040838503121561244857612447612192565b5b6000612456858286016121c1565b92505060206124678582860161241c565b9150509250929050565b61247a816123fb565b82525050565b60006020820190506124956000830184612471565b92915050565b6000602082840312156124b1576124b0612192565b5b60006124bf848285016121c1565b91505092915050565b600073ffffffffffffffffffffffffffffffffffffffff82169050919050565b6000819050919050565b600061250d612508612503846124c8565b6124e8565b6124c8565b9050919050565b600061251f826124f2565b9050919050565b600061253182612514565b9050919050565b61254181612526565b82525050565b600060208201905061255c6000830184612538565b92915050565b60008060006060848603121561257b5761257a612192565b5b60006125898682870161241c565b935050602061259a868287016121c1565b925050604084013567ffffffffffffffff8111156125bb576125ba612197565b5b6125c7868287016122ee565b9150509250925092565b600080fd5b600080fd5b60008083601f8401126125f1576125f06121d6565b5b8235905067ffffffffffffffff81111561260e5761260d6125d1565b5b60208301915083600182028301111561262a576126296125d6565b5b9250929050565b60008060006040848603121561264a57612649612192565b5b6000612658868287016121c1565b935050602084013567ffffffffffffffff81111561267957612678612197565b5b612685868287016125db565b92509250509250925092565b60008115159050919050565b6126a681612691565b82525050565b60006020820190506126c1600083018461269d565b92915050565b60006126d2826124c8565b9050919050565b6126e2816126c7565b81146126ed57600080fd5b50565b6000813590506126ff816126d9565b92915050565b60006020828403121561271b5761271a612192565b5b6000612729848285016126f0565b91505092915050565b60008060006060848603121561274b5761274a612192565b5b6000612759868287016121c1565b935050602084013567ffffffffffffffff81111561277a57612779612197565b5b612786868287016122ee565b925050604061279786828701612347565b9150509250925092565b6000819050919050565b6127b4816127a1565b82525050565b60006020820190506127cf60008301846127ab565b92915050565b600081519050919050565b600082825260208201905092915050565b60005b8381101561280f5780820151818401526020810190506127f4565b60008484015250505050565b6000612826826127d5565b61283081856127e0565b93506128408185602086016127f1565b612849816121e0565b840191505092915050565b6000602082019050818103600083015261286e818461281b565b905092915050565b61287f816126c7565b82525050565b600060208201905061289a6000830184612876565b92915050565b600067ffffffffffffffff8211156128bb576128ba6121f1565b5b602082029050602081019050919050565b60006128df6128da846128a0565b612251565b90508083825260208201905060208402830185811115612902576129016125d6565b5b835b8181101561292b578061291788826121c1565b845260208401935050602081019050612904565b5050509392505050565b600082601f83011261294a576129496121d6565b5b813561295a8482602086016128cc565b91505092915050565b60008060006060848603121561297c5761297b612192565b5b600061298a868287016126f0565b935050602061299b868287016126f0565b925050604084013567ffffffffffffffff8111156129bc576129bb612197565b5b6129c886828701612935565b9150509250925092565b6000806000606084860312156129eb576129ea612192565b5b60006129f9868287016121c1565b9350506020612a0a8682870161241c565b9250506040612a1b8682870161241c565b9150509250925092565b600060208284031215612a3b57612a3a612192565b5b600082013567ffffffffffffffff811115612a5957612a58612197565b5b612a65848285016122ee565b91505092915050565b6000612a7982612514565b9050919050565b612a8981612a6e565b82525050565b6000602082019050612aa46000830184612a80565b92915050565b600080600080600060808688031215612ac657612ac5612192565b5b6000612ad4888289016121c1565b9550506020612ae5888289016121c1565b9450506040612af68882890161241c565b935050606086013567ffffffffffffffff811115612b1757612b16612197565b5b612b23888289016125db565b92509250509295509295909350565b60008060008060808587031215612b4c57612b4b612192565b5b6000612b5a878288016121c1565b9450506020612b6b878288016121c1565b9350506040612b7c878288016126f0565b9250506060612b8d8782880161241c565b91505092959194509250565b6000604082019050612bae6000830185612471565b612bbb6020830184612471565b9392505050565b600082825260208201905092915050565b7f4c7a4170703a20696e76616c696420656e64706f696e742063616c6c65720000600082015250565b6000612c09601e83612bc2565b9150612c1482612bd3565b602082019050919050565b60006020820190508181036000830152612c3881612bfc565b9050919050565b7f4e487b7100000000000000000000000000000000000000000000000000000000600052602260045260246000fd5b60006002820490506001821680612c8657607f821691505b602082108103612c9957612c98612c3f565b5b50919050565b7f4c7a4170703a20696e76616c696420736f757263652073656e64696e6720636f60008201527f6e74726163740000000000000000000000000000000000000000000000000000602082015250565b6000612cfb602683612bc2565b9150612d0682612c9f565b604082019050919050565b60006020820190508181036000830152612d2a81612cee565b9050919050565b612d3a8161219c565b82525050565b6000602082019050612d556000830184612d31565b92915050565b600081519050612d6a816126d9565b92915050565b600060208284031215612d8657612d85612192565b5b6000612d9484828501612d5b565b91505092915050565b600080fd5b600080fd5b612db0816127a1565b8114612dbb57600080fd5b50565b600081519050612dcd81612da7565b92915050565b600081519050612de281612330565b92915050565b612df181612691565b8114612dfc57600080fd5b50565b600081519050612e0e81612de8565b92915050565b6000612e27612e228461226c565b612251565b905082815260208101848484011115612e4357612e426121db565b5b612e4e8482856127f1565b509392505050565b600082601f830112612e6b57612e6a6121d6565b5b8151612e7b848260208601612e14565b91505092915050565b60006101408284031215612e9b57612e9a612d9d565b5b612ea6610140612251565b90506000612eb684828501612dbe565b6000830152506020612eca84828501612dbe565b6020830152506040612ede84828501612dd3565b6040830152506060612ef284828501612dd3565b6060830152506080612f0684828501612dd3565b60808301525060a0612f1a84828501612dbe565b60a08301525060c0612f2e84828501612d5b565b60c08301525060e0612f4284828501612d5b565b60e083015250610100612f5784828501612dff565b6101008301525061012082015167ffffffffffffffff811115612f7d57612f7c612da2565b5b612f8984828501612e56565b6101208301525092915050565b600060208284031215612fac57612fab612192565b5b600082015167ffffffffffffffff811115612fca57612fc9612197565b5b612fd684828501612e84565b91505092915050565b600067ffffffffffffffff821115612ffa57612ff96121f1565b5b613003826121e0565b9050602081019050919050565b600061302361301e84612fdf565b612251565b90508281526020810184848401111561303f5761303e6121db565b5b61304a8482856127f1565b509392505050565b600082601f830112613067576130666121d6565b5b8151613077848260208601613010565b91505092915050565b60006020828403121561309657613095612192565b5b600082015167ffffffffffffffff8111156130b4576130b3612197565b5b6130c084828501613052565b91505092915050565b600081519050919050565b60006130df826130c9565b6130e98185612bc2565b93506130f98185602086016127f1565b613102816121e0565b840191505092915050565b613116816127a1565b82525050565b6131258161231c565b82525050565b613134816126c7565b82525050565b61314381612691565b82525050565b600082825260208201905092915050565b6000613165826127d5565b61316f8185613149565b935061317f8185602086016127f1565b613188816121e0565b840191505092915050565b6000610140830160008301516131ac600086018261310d565b5060208301516131bf602086018261310d565b5060408301516131d2604086018261311c565b5060608301516131e5606086018261311c565b5060808301516131f8608086018261311c565b5060a083015161320b60a086018261310d565b5060c083015161321e60c086018261312b565b5060e083015161323160e086018261312b565b5061010083015161324661010086018261313a565b50610120830151848203610120860152613260828261315a565b9150508091505092915050565b60006080820190506132826000830187612876565b61328f6020830186612471565b81810360408301526132a181856130d4565b905081810360608301526132b58184613193565b905095945050505050565b600081905092915050565b60006132d783856132c0565b93506132e483858461229d565b82840190509392505050565b60006132fd8284866132cb565b91508190509392505050565b600061331583856127e0565b935061332283858461229d565b61332b836121e0565b840190509392505050565b600060408201905061334b6000830186612d31565b818103602083015261335e818486613309565b9050949350505050565b7f4e6f6e626c6f636b696e674c7a4170703a2063616c6c6572206d75737420626560008201527f204c7a4170700000000000000000000000000000000000000000000000000000602082015250565b60006133c4602683612bc2565b91506133cf82613368565b604082019050919050565b600060208201905081810360008301526133f3816133b7565b9050919050565b7f496e697469616c697a61626c653a20636f6e747261637420697320616c72656160008201527f647920696e697469616c697a6564000000000000000000000000000000000000602082015250565b6000613456602e83612bc2565b9150613461826133fa565b604082019050919050565b6000602082019050818103600083015261348581613449565b9050919050565b60008160601b9050919050565b60006134a48261348c565b9050919050565b60006134b682613499565b9050919050565b6134ce6134c9826126c7565b6134ab565b82525050565b60006134e082856134bd565b6014820191506134f082846134bd565b6014820191508190509392505050565b7f4e487b7100000000000000000000000000000000000000000000000000000000600052603260045260246000fd5b60008190508160005260206000209050919050565b60006020601f8301049050919050565b600082821b905092915050565b6000600883026135917fffffffffffffffffffffffffffffffffffffffffffffffffffffffffffffffff82613554565b61359b8683613554565b95508019841693508086168417925050509392505050565b60006135ce6135c96135c4846123fb565b6124e8565b6123fb565b9050919050565b6000819050919050565b6135e8836135b3565b6135fc6135f4826135d5565b848454613561565b825550505050565b600090565b613611613604565b61361c8184846135df565b505050565b5b8181101561364057613635600082613609565b600181019050613622565b5050565b601f821115613685576136568161352f565b61365f84613544565b8101602085101561366e578190505b61368261367a85613544565b830182613621565b50505b505050565b600082821c905092915050565b60006136a86000198460080261368a565b1980831691505092915050565b60006136c18383613697565b9150826002028217905092915050565b6136da826127d5565b67ffffffffffffffff8111156136f3576136f26121f1565b5b6136fd8254612c6e565b613708828285613644565b600060209050601f83116001811461373b5760008415613729578287015190505b61373385826136b5565b86555061379b565b601f1984166137498661352f565b60005b828110156137715784890151825560018201915060208501945060208101905061374c565b8683101561378e578489015161378a601f891682613697565b8355505b6001600288020188555050505b505050505050565b7f4e487b7100000000000000000000000000000000000000000000000000000000600052601160045260246000fd5b60006137dd826123fb565b91507fffffffffffffffffffffffffffffffffffffffffffffffffffffffffffffffff820361380f5761380e6137a3565b5b600182019050919050565b6000819050919050565b600060ff82169050919050565b600061384c6138476138428461381a565b6124e8565b613824565b9050919050565b61385c81613831565b82525050565b60006020820190506138776000830184613853565b92915050565b7f4c7a4170703a20696e76616c6964205f647374476173416d6f756e7400000000600082015250565b60006138b3601c83612bc2565b91506138be8261387d565b602082019050919050565b600060208201905081810360008301526138e2816138a6565b9050919050565b60006060820190506138fe6000830186612d31565b61390b6020830185612471565b6139186040830184612471565b949350505050565b60006080820190506139356000830188612d31565b6139426020830187612d31565b61394f6040830186612471565b8181036060830152613962818486613309565b90509695505050505050565b6000613979826127d5565b61398381856132c0565b93506139938185602086016127f1565b80840191505092915050565b60006139ab828461396e565b915081905092915050565b7f4e6f6e626c6f636b696e674c7a4170703a206e6f2073746f726564206d65737360008201527f6167650000000000000000000000000000000000000000000000000000000000602082015250565b6000613a12602383612bc2565b9150613a1d826139b6565b604082019050919050565b60006020820190508181036000830152613a4181613a05565b9050919050565b7f4e6f6e626c6f636b696e674c7a4170703a20696e76616c6964207061796c6f6160008201527f6400000000000000000000000000000000000000000000000000000000000000602082015250565b6000613aa4602183612bc2565b9150613aaf82613a48565b604082019050919050565b60006020820190508181036000830152613ad381613a97565b9050919050565b600082905092915050565b613aef8383613ada565b67ffffffffffffffff811115613b0857613b076121f1565b5b613b128254612c6e565b613b1d828285613644565b6000601f831160018114613b4c5760008415613b3a578287013590505b613b4485826136b5565b865550613bac565b601f198416613b5a8661352f565b60005b82811015613b8257848901358255600182019150602085019450602081019050613b5d565b86831015613b9f5784890135613b9b601f891682613697565b8355505b6001600288020188555050505b50505050505050565b7f4f776e61626c653a206e6577206f776e657220697320746865207a65726f206160008201527f6464726573730000000000000000000000000000000000000000000000000000602082015250565b6000613c11602683612bc2565b9150613c1c82613bb5565b604082019050919050565b60006020820190508181036000830152613c4081613c04565b9050919050565b6000608082019050613c5c6000830187612d31565b613c696020830186612d31565b613c766040830185612876565b613c836060830184612471565b95945050505050565b600060208284031215613ca257613ca1612192565b5b600082015167ffffffffffffffff811115613cc057613cbf612197565b5b613ccc84828501612e56565b91505092915050565b600060a082019050613cea6000830188612d31565b613cf76020830187612876565b8181036040830152613d09818661281b565b9050613d18606083018561269d565b8181036080830152613d2a818461281b565b90509695505050505050565b600081519050613d4581612405565b92915050565b60008060408385031215613d6257613d61612192565b5b6000613d7085828601613d36565b9250506020613d8185828601613d36565b9150509250929050565b613d948161231c565b82525050565b6000608082019050613daf6000830187612d31565b8181036020830152613dc1818661281b565b9050613dd06040830185613d8b565b8181036060830152613de2818461281b565b905095945050505050565b7f4f776e61626c653a2063616c6c6572206973206e6f7420746865206f776e6572600082015250565b6000613e23602083612bc2565b9150613e2e82613ded565b602082019050919050565b60006020820190508181036000830152613e5281613e16565b9050919050565b7f4c7a4170703a2064657374696e6174696f6e20636861696e206973206e6f742060008201527f61207472757374656420736f7572636500000000000000000000000000000000602082015250565b6000613eb5603083612bc2565b9150613ec082613e59565b604082019050919050565b60006020820190508181036000830152613ee481613ea8565b9050919050565b6000613ef6826124c8565b9050919050565b613f0681613eeb565b82525050565b600060c082019050613f216000830189612d31565b8181036020830152613f33818861281b565b90508181036040830152613f47818761281b565b9050613f566060830186613efd565b613f636080830185612876565b81810360a0830152613f75818461281b565b9050979650505050505050565b613f8b81613eeb565b8114613f9657600080fd5b50565b600081519050613fa881613f82565b92915050565b60008060008060808587031215613fc857613fc7612192565b5b6000613fd687828801613f99565b9450506020613fe787828801613d36565b935050604085015167ffffffffffffffff81111561400857614007612197565b5b61401487828801613052565b925050606085015167ffffffffffffffff81111561403557614034612197565b5b61404187828801612e84565b91505092959194509250565b600060208201905081810360008301526140678184613193565b905092915050565b60006020828403121561408557614084612192565b5b600061409384828501612dff565b91505092915050565b60006060820190506140b16000830186612876565b6140be6020830185612471565b81810360408301526140d081846130d4565b9050949350505050565b7f496e697469616c697a61626c653a20636f6e7472616374206973206e6f74206960008201527f6e697469616c697a696e67000000000000000000000000000000000000000000602082015250565b6000614136602b83612bc2565b9150614141826140da565b604082019050919050565b6000602082019050818103600083015261416581614129565b905091905056fea26469706673582212201bc22ca8255cdf7b0193fe6a4c686abbd8283419ab71883b816b8379230832c264736f6c63430008150033",
  "linkReferences": {},
  "deployedLinkReferences": {}
}